:020000040000FA
:0600000040EF05F01200C4
:020006001200E6
:060008000EEF00F01200F3
:02000E000100EF
:0C0010009C0A000060000000930000004B
:04001C00DACFE4FF54
:10002000E9CFE4FFEACFE4FFE652D9CFE6FFE6529C
:100030009EAC22D09E9C0001692B000E6A236B238C
:100040006C23C450F350C324E66E6651E96EEA6A2D
:10005000D890E936EA36710EE926000EEA22E5521A
:10006000E750EE6EED6A6BC000F06CC001F0026A02
:10007000036A0050916E8D709EA610D09E96C9CFD7
:10008000FDF08D72FD0E0001FD5D04E1FD0EC96EF7
:100090008D7CC282FF0EFD5D01E1C968A4AE11D066
:1000A000A49E66CFFEF08D74FF0E0001FE5D01E19F
:1000B0008D76FD0EFE5D01E18D78FE0EFE5D01E1A7
:1000C0008D7AE552E552E7CFD9FFE552E5CFEAFF59
:1000D000E5CFE9FFE5CFDAFF1100D9CFE6FFE1CFA9
:1000E000D9FF0201FB6BFC6BFD6BFE6BD950FB0F64
:1000F000E96EFF0EDA20EA6E0201FB51EE5C0201AE
:10010000FC51EE580201FD51EE580201FE51EE582D
:1001100009E3000004000201FB2B000EFC23FD2379
:10012000FE23E4D7E552E7CFD9FF12000000020119
:10013000FF6B0001F1510201FF5D04E200000201CA
:10014000FF2BF7D712000F0EE66EECEC04F0E55231
:100150001200050EE66EECEC04F0E5521200D9CF69
:10016000E6FFE1CFD9FFFC0EDB502FE0FD0EDBCF29
:10017000E6FFFE0EDB50E552E7240001F26F140E9D
:10018000E66EE66A060EE66E0A0EE66E000EE66E95
:1001900032D972EC02F0066E070EE15E0650140EC4
:1001A000E66EE66A000EE66E020EE66E000123D9E8
:1001B00044EC02F0066E060EE15E0650000155D9D1
:1001C000140EE926000EEA22EF6AFD0EDB50030A48
:1001D0000CE0010A08E0030A04E0010A09E1E66A0A
:1001E00008D0400E03D0140E01D0540EE66E01D09C
:1001F000E66AF9EC03F0E552FD0EDB5000016825DC
:10020000F26F28D9FEE10001F6D8CBEC04F0E552FC
:10021000E55220D9FEE1E552E7CFD9FF12000001F7
:10022000C80EF16FF2D816D91FE02B0EE66EE7EC80
:1002300002F0E5520FD9FEE1E8D82B0EE66EE7ECAE
:1002400002F0E55207D9FEE10C0EE66E64EC04F014
:10025000E55200D9FEE1010EE66E64EC04F0E552D1
:10026000D4D80001180EF16F1200D9CFE6FFE1CF0C
:10027000D9FF050EE12693688D689168966A976AA2
:100280009A6A996A9068030EC16E928092829284F3
:100290009286928A97809782978497869788978A82
:1002A000978CF30EE66E840EE66EE66834EC03F08F
:1002B000E7D89D8C9F8C550EC96EE66A010EE66EDE
:1002C000050EE66E9DEC03F0DBD8800EE66E010EA7
:1002D000E66E020EE66E6BEC03F0D2D8C968666873
:1002E0009E969D86A49EA38EF28CF28E66686668AA
:1002F00096DF140EE66EE66A63C0E6FF64C0E6FFB2
:1003000065C0E6FF8CD8A1D8140EE66EE66A60C020
:10031000E6FF61C0E6FF62C0E6FF81D8020E95D815
:10032000DE6ADD6A9BD804E6E80E045C030E05581D
:1003300016E2020EDB6A030EDB6A7ED804E6640E68
:10034000045C000E055806E2020EDB2A030EF5E3FC
:10035000DB2AF3D7DF2A010EE5E3DB2AE3D7639C30
:10036000C69C639EC69E8D7EFD0E666E0001FE5D80
:1003700001E06668C650800B09E16350800B06E11E
:10038000C650400B03E16350400B16E09070639C35
:10039000C69C639EC69E6D0EE96E000EEA6EEE5020
:1003A0000001695D6D6FEE506A596E6FEE506B59CA
:1003B0006F6FEE506C59706FDE6ADD6A4FD804E6DD
:1003C000050E045C000E0558CEE2020EDB6A030E39
:1003D000DB6A32D804E6010E045C000E055806E222
:1003E000020EDB2A030EF5E3DB2AF3D7DF2A010E28
:1003F000E5E3DB2AE3D739D8E9CF04F0EACF05F00B
:10040000E9CFE6FFEACFE6FF1200100EE66E270EF8
:10041000E66EE66AE66A61DE33D8E5521200000E47
:10042000E66E020EE66E72EC02F0046E070EE15EFE
:100430000450010EE66E1200020EDBCF04F0030E34
:10044000DBCF05F0D89005501200E66EE66A87DE35
:1004500040EF02F01AEC05F000091200DECF04F0C4
:10046000DDCF05F0D89005501200F251150DF3CFF5
:10047000E9FFF4CFEAFF000EE926010EEA2212009E
:08048000E552E552E5521200BD
:08048800D9CFE6FFDACFE6FF51
:10049000FA0EE3CFD9FFFB0EE3CFDAFFFC0EE3CF7A
:1004A000E9FFFD0EE3CFEAFFE9CFF3FFEACFF4FF68
:1004B000F80EE35003E1F90EE3500BE0F80EE3060B
:1004C00002E2F90EE306DECFEFFFEE66F1D7DD5272
:1004D000EFD7FF0EE3CFDAFFE552FF0EE3CFD9FFF0
:1004E000E5521200FB0EE3CFF6FFFC0EE3CFF7FF61
:1004F000FD0EE3CFF8FFFE0EE3CFE9FFFF0EE3CFE3
:10050000EAFFE9CFF3FFEACFF4FFF90EE35003E18E
:10051000FA0EE3500CE0F90EE30602E2FA0EE306EF
:100520000900F5CFEFFFEE66F0D70A00EED7120014
:100530000E0EF66E000EF76E000EF86E000109004A
:10054000F550F86F0900F550F96F03E1F86701D035
:100550003DD00900F550F36F0900F550F46F090024
:10056000F550F56F09000900F550E96E0900F550E6
:10057000EA6E090009000900F550F66F0900F55010
:10058000F76F09000900F6CFFAF0F7CFFBF0F8CFCC
:10059000FCF0F3C0F6FFF4C0F7FFF5C0F8FF000170
:1005A000F65302E1F75307E00900F550EE6EF60747
:1005B000F8E2F707F9D7FAC0F6FFFBC0F7FFFCC077
:0E05C000F8FF0001F807000EF95BBFD712002C
:0205CE00D9CF83
:1005D000E6FFE1CFD9FF0F0E8716991699949992ED
:1005E0009996909490929096A3EC00F0300E33D8A8
:1005F000050EE66EECEC04F0E552300E2CD8010E40
:10060000E66EECEC04F0E552320E25D829D8FEE176
:1006100027D8FEE1FE0EDBCFE6FF64EC04F0E552E6
:100620001FD8FEE1080E17D81BD8FEE10F0E13D815
:1006300017D8FEE1010E0FD813D8FEE1130E0BD828
:100640000FD8FEE1800EE66EF9EC03F0E552E552BC
:10065000E7CFD9FF1200E66E64EC04F0E552120019
:080660001AEC05F0000912007C
:08066800D9CFE6FFDACFE6FF6F
:10067000E1CFD9FFE2CFDAFFC26AC06AFC0EDB40ED
:100680007F0B3C0BC26EFC0EDB38F00B300B046EA4
:10069000FB0EDB500F0B0410C16EFD0EDB50040D82
:1006A000F350380B056EFD0EDB380F0B070B046E95
:1006B000FD0EDB50800B04100510C06EFC0EDBAE8F
:1006C00003D09E9C9D8CF28CC280E552E5CFDAFF70
:0606D000E7CFD9FF120084
:0A06D600D9CFE6FFDACFE6FFE1CF4F
:1006E000D9FFE2CFDAFF3F0E6416636AFD0EDB50DE
:1006F0006312FB0EDB506412FC0EDB50030A09E0B0
:10070000010A04E0020A06E1648C04D0648C638868
:1007100001D06388FD0EDB50050A03E0010A03E106
:10072000958E958C01D0959C958A9598638AE55213
:0A073000E5CFDAFFE7CFD9FF120092
:06073A00D9CFE6FFDACF83
:10074000E6FFE1CFD9FFE2CFDAFF3F0EC716C66A58
:10075000FD0EDB50C612FB0EDB50C712FC0EDB5049
:10076000030A09E0010A04E0020A06E1C78C04D08A
:10077000C78CC68801D0C688FD0EDB50050A03E091
:10078000010A03E1978E948601D094969488949AF6
:0E079000C68AE552E5CFDAFFE7CFD9FF1200A7
:02079E00D9CFB1
:1007A000E6FFE1CFD9FF19D814E01AEC05F00009F3
:1007B000FCE113D8E66E41EC04F0E552D950FC0F91
:1007C000E96EFF0EDA20EA6EEE2A000EEE22EE222D
:1007D000EAD7E552E7CFD9FF1200FC0EDBCFF6FFD8
:1007E000FD0EDBCFF7FFFE0EDBCFF8FF0800F55064
:0207F0001200F5
:0E07F200D9CFE6FFE1CFD9FF0F0E991687167B
:10080000FE0EDB508009F00B8712909490920ED868
:100810000F0E8716FE0EDB38F00BF00B871206D892
:10082000F00E9912E552E7CFD9FF120096EC00F0D6
:0A083000908696EC00F090961200FE
:06083A00D9CFE6FFE1CF7B
:10084000D9FF0F0E99168716FE0EDB504009F00BEC
:100850008712909490920ED80F0E8716FE0EDB38FA
:10086000F00BF00B871206D8F00E9912E552E7CF85
:10087000D9FF120096EC00F0908696EC00F090966E
:02088000120064
:0E088200D9CFE6FFE1CFD9FF0F0E99168716EA
:10089000FE0EDB50F00B8712908290940ED80F0E54
:1008A0008716FE0EDB38F00BF00B871206D8F00E21
:1008B0009912E552E7CFD9FF120096EC00F090862E
:0808C00096EC00F09096120086
:0808C800D9CFE6FFE1CFD9FF13
:1008D0000F0E99168716FE0EDB50F00B87129094C0
:1008E00090920ED80F0E8716FE0EDB38F00BF00B31
:1008F000871206D8F00E9912E552E7CFD9FF120001
:0E09000096EC00F0908696EC00F090961200B7
:02090E00D9CF3F
:10091000E6FFE1CFD9FFE6529084908296EC00F09A
:10092000908696EC00F0F00E8714DF6E909696ECB1
:1009300000F0908696EC00F087380F0B0F0BDF125B
:10094000909690929094DF50E552E552E7CFD9FF10
:02095000120093
:0E095200D9CFE6FFE1CFD9FFE6529084909214
:1009600096EC00F0908696EC00F0F00E8714DF6EA7
:10097000909696EC00F0908696EC00F087380F0B7E
:100980000F0BDF12909690947F0EDF14E552E55224
:06099000E7CFD9FF1200C1
:0A099600D9CFE6FFE1CFD9FF14D856
:1009A0000FE01AEC05F00009FCE10ED8E66E41EC10
:1009B00004F0E552FD0EDB2AFE0EF1E3DB2AEFD751
:1009C000E552E7CFD9FF1200FD0EDBCFE9FFFE0EA7
:0809D000DBCFEAFFEF5012003B
:0809D800FF0EE3500A6EEF0E62
:1009E00001D0F30EE76EE72EF3EF04F00C0E096E64
:1009F000E76AE72EF9EF04F0092EF8EF04F00A2E6B
:060A0000F1EF04F012000A
:0A0A060020202020202020202020A6
:100A100020202020202020202020202020200030E6
:100A2000373A30373A3437004F637420313120324F
:040A3000303132002F
:0C0A34009084909296EC00F0908696EC76
:100A400000F087AE02D003D8010C01D8000C9096BC
:100A500096EC00F0908696EC00F090969094120040
:100A6000600EF36E00EE00F00F0E01D81200EA6087
:100A700002D0EE6AFCD7F350E9601200EE6AFCD7B0
:100A80001EEE00F02EEE00F0F86A089C98EC02F0E2
:0C0A900003EC00F035EC01F0FBD7120085
:040A9C00280A001F05
:100AA0000A0000000000000000000000000000003C
:100AB0000000000000000000000000000000000036
:100AC0000000000000000000000000000000000026
:100AD0000000000000000000000000000000000016
:100AE0000000000000000000000000000000000006
:100AF00000000000000000000000000000000000F6
:100B000000000000000000000000000000000000E5
:100B100000000000000000000000000000000000D5
:0F0B200000000000000000000000000000C800FE
:020000040030CA
:0100010006F8
:0100020019E4
:010003001EDE
:010006008178
:00000001FF
