:020000040000FA
:06000000EDEF0EF012000E
:020006001200E6
:060008001FEF06F01200DC
:02000E000100EF
:0C001000261E0000600000009F000000A1
:04001C004AEC05F0B5
:10002000FB0EDBCFF3FFDB06F35000090AE098EC90
:1000300005F0FA0E03EC06F0F3E1151CF1E1010EF8
:1000400001D0000E79EF05F04AEC05F03B0EE124FB
:1000500002E3E168E652E16E010EDB6A020EDB6A42
:10006000F90EDBCFF6FFFA0EDBCFF7FFFB0EDBCF8F
:10007000F8FF0800F550DF6EDF5002E19DEF04F05D
:10008000250EDF5C02E090EF04F0030EDB6A040E45
:10009000DB6A050EDB6A060EDB6A070EDB6AB2EC72
:1000A00004F02D0EDF5C0CE02B0EDF5C09E0200E6F
:1000B000DF5C06E0230EDF5C03E0300EDF5C1AE15C
:1000C000DF50300A14E0130A0FE0030A0AE00B0ABB
:1000D00005E0060AE4E1030EDB80E1D7030EDB82D4
:1000E000DED7030EDB84DBD7030EDB86D8D7030E07
:1000F000DB88D5D72A0EDF5C1BE1AEEC04F0FCEC0C
:1001000004F010E0030EDB8008680968130EDBCFF3
:100110000DF0140EDBCF0EF069EC0BF0040E06C0F0
:10012000DBFF03D0130EE5EC04F0B2EC04F00BD0CF
:10013000090EDB6A53EC05F003E0C7EC05F0FAD7D3
:10014000090EE5EC04F0030EDBB0DB982E0EDF5C4D
:100150001BE1B2EC04F02A0EDF5C0BE1AEEC04F024
:10016000FCEC04F003E1130E37EC05F0B2EC04F004
:100170000BD0090EDB6A53EC05F003E0C7EC05F089
:10018000FAD7090E37EC05F0680EDF5C07E1B2EC38
:1001900004F0680EDF5C1DE1030E18D0740EDF5C06
:1001A00017E07A0EDF5C14E0480EDF5C06E0540EC8
:1001B000DF5C03E05A0EDF5C02E1020E07D06C0E3A
:1001C000DF5C03E06A0EDF5C04E1010E8AEC05F0FF
:1001D000C9DBDF506E0A01E17FD31E0A01E192D133
:1001E000200A01E18FD13F0A01E149D11A0A01E158
:1001F00046D10D0A01E143D1200A01E140D13A0A7A
:1002000001E13DD1200A01E13AD1260A01E135D1CF
:100210000D0A01E132D11A0A01E1D9D0200A4AE0DF
:10022000300A1FE0460A0EE0250A01E083D3D950C8
:10023000F90FE96EFF0EDA20EA6E010EEE5E000E97
:10024000EE5AEE5A98EC05F0250EE66E95DB03E1CA
:10025000151C01E169D394EC05F001E26BD3DB2AB4
:1002600069D3080EDB6A040EDB50010806E2040EB7
:10027000DB045CEC05F0DB508BDB080EDB5009E0A7
:10028000030EDB50010B05E172DB01E04DD3080EDC
:10029000DB6A64DBEFCFDFFF0CEC06F003E1151C3B
:1002A00001E142D394EC05F001E3DB2A60DB01E1DC
:1002B00041D33AD3070EDB5002080FE1D8EC05F02A
:1002C000030E9FEC05F00E0EEECFDBFF0F0EEECF10
:1002D000DBFF100EEECFDBFF20D0F70EDBCF17F0E9
:1002E000F80EDBCF18F0020E175E000E185AF70E4C
:1002F00017C0DBFFF80E18C0DBFF17C0E9FF18C0FE
:10030000EAFF8FEC05F0166A0E0E14C0DBFF0F0E2D
:1003100015C0DBFF100E16C0DBFF0E0EDBCFE6FFB5
:100320000F0EDBCFE6FF100EDBCFE6FF68EC0AF026
:10033000E552E552E552130E07C0DBFF140E08C06C
:10034000DBFF060EDB5005E0130ED3EC05F001E2F7
:100350006ADBF7EC05F002E2130E37DBBAEC05F0CE
:1003600006E0040ED3EC05F002E2050E2EDB030ED0
:10037000DBB005D0FCDA01E0D7D2080EDB6A090E4B
:10038000DB6A0E0EDBCFF6FF0F0EDBCFF7FF100E92
:10039000DBCFF8FF0800F550DF6EDF5014E0FDEC16
:1003A00005F011E20CEC06F003E1151C01E1BCD2F2
:1003B000BBDB01E3DB2A090EDB2AD9500E0FE96E05
:1003C000000ECBDBE7D7D3DA01E1B4D2ADD2C6DA87
:1003D000110EEECFDBFF120EEDCFDBFF110EDBCFE8
:1003E000E6FF120EDBCFE6FF5AEC0AF0E552E552CB
:1003F000130EF3CFDBFF140EF4CFDBFF060EDB5042
:1004000004E0130ED0DB01E20EDBF7EC05F002E2B4
:10041000130EDBDAAFDB05E0040EC5DB02E2050EEE
:10042000D4DA030EDBB005D0A2DA01E07DD2080EEB
:10043000DB6A090EDB6A110EDBCFE9FF120EDBCFA0
:10044000EAFFEFCFDFFFDF5014E0D7DB12E2E4DB9F
:1004500003E1151C01E168D267DB01E3DB2A090E29
:10046000DB2A110EDB2ADBCFE9FF120EE8E3DB2AE1
:10047000E6D77DDA01E15ED257D2030EDB8E070E9E
:10048000DB0410E195DB040E5ADB0A0EEECFDBFF36
:100490000B0EEECFDBFF0C0EEECFDBFF0D0EEECF23
:1004A000DBFF6CD0070EDB5003082CE1030EDBAE44
:1004B0000DD0B2DA020E76DAEFCF14F0156A166AB2
:1004C000176A14AE39D01568166835D0F70EDBCF31
:1004D00015F0F80EDBCF16F0020E155E000E165A60
:1004E000F70E15C0DBFFF80E16C0DBFF15C0E9FFE5
:1004F00016C0EAFFEFCF14F00A0E14C0DBFF0B0E9C
:10050000DB6A38D0070EDB50020809E1030EDBAED0
:1005100004D059DB16AE10D00ED055DB0DD0030E33
:10052000DBAE12D079DA020E3DDAF9DA166A176A12
:1005300015AE02D016681768E2DA0C0E16C0DBFFA3
:100540000D0E17C0DBFF1AD0F70EDBCF16F0F80E3A
:10055000DBCF17F0020E165E000E175AF70E16C00C
:10056000DBFFF80E17C0DBFF16C0E9FF17C0EAFF7C
:10057000D6DAC5DA0C0EDB6A0D0EDB6A060EDB502E
:1005800005E1010EF36E050EF3CFDBFF150EDB6AFE
:10059000160EDB6AD950370F146E000EDA20156E76
:1005A000390E14C0DBFF3A0E15C0DBFF380EDB6AD4
:1005B000080EDB6A0A0EAEDADF50780A12E0200A73
:1005C00010E0280A0CE0200A0AE03F0A06E00D0AC3
:1005D00002E0200A08E1020E05D0080E03D0080E42
:1005E000DF26100E97DA030EDBBE02D0DB92DB941F
:1005F000DB50800B24E08ADAD890030EEB50000A1F
:1006000008E6000EEE5C000EEE58000EEE58000EEE
:10061000EE5815E213DA0B680C680D680E6874EC7E
:100620000CF00A0E02C0DBFF0B0E03C0DBFF0C0E4A
:1006300004C0DBFF0D0E05C0DBFF2D0E08D0030E3E
:10064000DBA202D02B0E03D0DBA408D0200EF36E69
:10065000170EF3CFDBFF150EDB2A02D0170EDB6A75
:10066000050EDB5003E1B7D901E189D0120E146EFB
:100670001E0E156E000E166E070EDBCF17F0186AF1
:10068000196A1A6A17C00BF018C00CF019C00DF0E7
:100690001AC00EF0D3D9B9EC0DF014500224F36E49
:1006A00015500320F46E16500420F86EF4CFF7FFB7
:1006B000F3CFF6FF0800090EF5CFDBFF580EDF5C25
:1006C0000FE1610EF36E090E7BD90AE3200E146E62
:1006D000090EDBCFE7FF1450E75E090EE7CFDBFF23
:1006E000070EDBCF14F0156A166A176A0FDA14C00A
:1006F0000BF015C00CF016C00DF017C00EF0EECFC9
:1007000006F0EECF07F0EECF08F0EFCF09F0B9EC2E
:100710000DF009C0EDFF08C0EDFF07C0EDFF06C0FA
:10072000EFFF390EDBCFE9FFDB063A0EDBCFEAFF46
:1007300001E2DB06090EDBCFEFFF150EDB2A4BD9FA
:1007400095E1030EDBA61DD06F0EDF5C06E1C1D97B
:1007500018E3150EDB285BDA14D0780EDF5C09E0B5
:10076000580EDF5C06E0620EDF5C03E0420EDF5CE9
:1007700008E1020EF36E160EF3CFDBFF02D0150E6A
:10078000DB6A030EDB50100B0EE0040EDBCF14F01F
:10079000050EDB50D880145406E2060EDB5003E150
:1007A000040EDB5034DA95D90AE2050EDBCFE7FF01
:1007B000150EDB50E75E050EE7CFDBFF02D0050E1E
:1007C000DB6A040EDBCF14F0160E45D9D880145422
:1007D00014E2160EDBCFE6FF150EDBCFE6FF040EAC
:1007E000DBCFE6FF050EDB50E552E75CE552D88033
:1007F000E754E552D880E7545FD9030EDB50010B74
:100800000BE1080EDB5008E0B2D801E08DD0080EF5
:10081000DB50BED8080EDB6A170EDB5007E088D924
:10082000170EF1D903E1151C01E17ED0160EDB5045
:1008300016E07ED9300EE66E9FD802E1151C74E0FA
:1008400077D9DFCFE6FF32EC0CF0E552E552E55206
:10085000F4CF15F00001F31C02E1151C65E0050E54
:10086000DBCF14F0160EDB50D880145409E2050ECD
:10087000DBCFE7FF160EDB50E75E050EE7CFDBFFB1
:10088000300EE66E050ECBD94FE1390EDB2ADBCFF9
:10089000E9FF3A0E01E3DB2ADBCFEAFF090EEFCFD7
:1008A000DBFFDB500EE044D9090EADD902E1151C87
:1008B0003BE0390EDB2ADBCFE9FF3A0EEDE3DB2A22
:1008C000EBD755D831E1160EDBCFE6FF080EC3D8C3
:1008D000E552E7245DD82ED0070EDB50030A1CE05A
:1008E000010A14E0030A07E07BD9DBCFEEFF020E1A
:1008F000DBCFEDFF1FD0F5D8196A17AE02D018680C
:1009000019682CD8BCD819C0EEFF14D0EAD817BE8D
:10091000186824D8B4D80ED063D9DBCFEFFF0AD043
:100920007BD905E1151C03E1F368F46810D0FCD80D
:1009300001E3DB2A79D939EF00F0010EDBCF14F0A7
:10094000020EDBCF15F014C0F3FF15C0F4FF3B0E11
:10095000E15C02E2E16AE552E16ECBD029D9020EF8
:100960009FEF05F061D90800F550DF6E1200200EF0
:10097000E66E080E0FEF06F032EC0CF0E552E55291
:10098000E552F3CF14F0F4CF15F00001F31C120080
:10099000146E156AD950010F4DD91450EE2615501A
:1009A000ED221200185E000E195AF70E18C0DBFF78
:1009B000F80E19C0DBFF18C0E9FF19C0EAFF1200EA
:1009C000DBCFF4FFF350F45C1200DB50E76E040E53
:1009D000E7CFDBFF12000A0EDBCF14F00B0EDBCFEC
:1009E00015F00C0EDBCF16F00D0EDBCF17F0145008
:1009F0001510161017101200130EEECFDBFF140E99
:100A0000EDCFDBFF130EDBCF14F0140EDBCF15F0B0
:100A10000001800E15141200F70EDBCF18F0F80E4F
:100A2000DBCF19F01200050EDB50E66ED950130F24
:100A300001D9E552E750EE6EED6A12000A0EDBCFE7
:100A400006F00B0EDBCF07F00C0EDBCF08F00D0E1F
:100A5000DBCF09F01200DBCFE6FF150EDBCFE6FFA0
:100A6000050EDB50E552E724E552E7241200DB5087
:100A7000CED8010EF36E060EF3CFDBFF1200EE5060
:100A8000EFCFEAFFE96E16C0EEFF17C0EEFF18C009
:100A9000EEFF1200D9CFE6FFDACFE6FFE1CFD9FFB4
:100AA000E2CFDAFF1200DFCFE6FFE66ACBEC0EF012
:100AB000E552E552F3501200E76E080EE7CFDBFF78
:100AC0001200EECF14F0EECF15F0EFCF16F0176A4C
:100AD0001200050EDBCF14F0150EDB50D880145435
:100AE0001200010EDBCF16F0020EDBCF17F0186AF2
:100AF0001200E552E5CFDAFFE7CFD9FF12000A0E68
:100B000014C0DBFF0B0E15C0DBFF1200D9500A0F1B
:100B10001AEF06F0F36E070EF3CFDBFF1200EECFF5
:100B200014F0EFCF15F01200010EDB2A020E1200B6
:100B3000FC0EDBCFE6FFFD0EDBCFE6FF1200145EFE
:100B4000000E155AF70E14C0DBFFF80E15C0DBFFC0
:100B500014C0E9FF15C0EAFF1200DA20EA6EEF2A9E
:100B6000EECFF6FF000EEF22EECFF7FFEF22EECF33
:100B7000F8FF1200040EDBCFE6FF130EDB50E55248
:100B8000E75C9ADFDB5004DF060EDB501200090E33
:100B9000DB500A0DF350DF24D00FE76E090EE7CFCC
:100BA000DBFFB2EF04F0DB50F36E050EE0EF04F074
:100BB000F70EDBCF14F0F80EDBCF15F01200DFCF0D
:100BC000E6FFBCEF04F028DF030EECDE61EF05F07A
:100BD0000EEC00F0E552E552E552E5520009120034
:100BE000BDDEEE50EFCFEAFFE96E010E1200130EEC
:100BF000DB50F36E040EE0EF04F0040EDB50F36EF6
:100C0000090EE0EF04F0DBCFE6FFBCEF04F0E76E87
:100C1000050EE7CFDBFF12008BDFDFEF05F0DBCF48
:100C2000E6FF86DFE8EF05F0D950F90FE96EFF0E19
:0E0C3000ADEF05F0E96E000EDA20EA6E12005C
:020C3E00DACF0B
:100C4000E4FFE9CFE4FFEACFE4FFF3CFE4FFF4CF22
:100C5000E4FFE6529EAC11D09E9C00016E2B000E6C
:100C60006F23702371234EDBC3CFEEFFC4CFEDFFA4
:100C700049DBEF50C96E010E696F9EA641D09E966A
:100C8000C9CFFCF1F00E0101FC15800815E10F0E33
:100C9000FC150001FD6FE8500B0801E2FD6BC2B2CC
:100CA0000BD0C30EC2141B6EFD51040DF3503C0B50
:100CB0001B10C26E696BC282400E0101FC5D02E135
:100CC0004C0EC96E900EFC5D0FE1C2B20CD000015B
:100CD00019DBEECF1BF0EFCF1CF01CC01BF01C6A21
:100CE0001B50C96E01D0C96AA00E0101FC5D08E16C
:100CF000C2B205D0000106DBEF50C96E01D0C96A4F
:100D0000A4AE2AD0A49E0001762B000E7723782370
:100D1000792366CFFDF18D7A6B5107E0C00E01019A
:100D2000FD15400816E18D7614D06C5108E00101E4
:100D3000FD510001FA6FFB6B6C6B8D7C0AD0FDC11D
:100D40001BF01BC01CF01B6A1B50FA271C50FB2316
:100D50008D7E0001010E686FE552E5CFF4FFE5CF0F
:100D6000F3FFE5CFEAFFE5CFE9FFE5CFDAFF1100BA
:100D7000D9CFE6FFE1CFD9FF0201FB6BFC6BFD6B26
:100D8000FE6BD950FB0FE96EFF0EDA20EA6E02010E
:100D9000FB51EE5C0201FC51EE580201FD51EE5890
:100DA0000201FE51EE5809E3000004000201FB2B92
:100DB000000EFC23FD23FE23E4D7E552E7CFD9FF45
:100DC000120000000201FF6B0001FC510201FF5DF7
:100DD00004E200000201FF2BF7D712000F0EE66EAF
:100DE00088EC0EF0E5521200050EE66E88EC0EF06F
:100DF000E5521200DBDAFC0EDB502CE0FD0EDBCFFF
:100E0000E6FFFE0EDB50E552E7240001FE6F140EF4
:100E1000E66EE66AAC0EE66E150EE66E000EE66E47
:100E200067DA34EC0AF0166E070EE15E1650140E07
:100E3000E66EE66AE2DA00015BDA06EC0AF0166EAC
:100E4000060EE15E16500001C3DA140EE926000E0C
:100E5000EA22EF6AFD0EDB50030A0CE0010A08E00B
:100E6000030A04E0010A09E1E66A08D0400E03D053
:100E7000140E01D0540EE66E01D0E66A71EC0DF04E
:100E8000E552FD0EDB5000016D25FE6F94DAFEE1A8
:100E900000012EDA67EC0EF0E552E5528CDAFEE145
:100EA0008ED20001C80EFC6F38DA85DA1FE02B0EF7
:100EB000E66EE5EC0BF0E5527EDAFEE12EDA2B0E63
:100EC000E66EE5EC0BF0E55276DAFEE10C0EE66E2E
:100ED00000EC0EF0E5526FDAFEE1010EE66E00EC7A
:100EE0000EF0E5521ADA0001180EFC6F12005EDAFD
:100EF000060EE126040EDB6A050EDB6ADE6ADD6A99
:100F00004EDA04E6010E145C000E155813E25BDAAB
:100F100023DA04E6140E145C000E155806E2020EE5
:100F2000DB2A030EF5E3DB2AF3D7DF2A010EE8E321
:100F3000DB2AE6D7060EE15C02E2E16AE552E16EE9
:100F40003ED20001686B120031DA040EE126DE6A3F
:100F5000DE6ADE6ADD6ADD52DD52000168511DE1A4
:100F6000D9CFE9FFDACFEAFFEFCF14F0EE2A000E77
:100F7000EFCF15F0EE22EFCF16F0EE22EFCF17F005
:100F8000EF22D880500E1454C30E1554000E165480
:100F9000000E1754E2E2000E01D0010E146E040E92
:100FA000E15C02E2E16AE552E16E145008D2FED93A
:100FB0002A0EE126040EDB6A050EDB6A060EDB6AEA
:100FC000070EDB6A080EDB6A090EDB6AD9500A0FCE
:100FD000E96EDACFEAFFB5D9B4D9B3D99368966A86
:100FE000976A9A6A996A8D6891689068959C958AC3
:100FF000959894869488949A030EC16E92809282FA
:1010000092849286928A978097829784978697880F
:10101000978A978CF30EE66E840EE66EE668ACEC6B
:101020000CF0F0D99D8C9F8CE66A030EE66E050EDF
:10103000E66E15EC0DF0E6D9E66A030EE66E020EDA
:10104000E66EE3EC0CF0DED9400EC96E666E9E963D
:101050009D86A49EA38EF28CF28E23DF140EE66E84
:10106000E66A63C0E6FF64C0E6FF65C0E6FF7DD9BF
:10107000E66A5DD9140EE66EE66A60C0E6FF61C0FE
:10108000E6FF62C0E6FF71D9E66E51D9DE6ADD6A1D
:1010900086D904E6E80E145C030E155813E293D9C2
:1010A0005BD904E6640E145C000E155806E2020ECD
:1010B000DB2A030EF5E3DB2AF3D7DF2A010EE8E390
:1010C000DB2AE6D7639CC69C639EC69E8D70280E65
:1010D000DB2A37DF0001010E6C6F6B6F280EDB50CF
:1010E000010B8009666E30DF000939E0290EFDC171
:1010F000DBFF8D74C00E0101FD1540082EE18D78D7
:101100000F0EFD15E66ED950060FE96EDACFEAFF35
:10111000E552E750EE6EED6A00016B6B010E6A6FEF
:10112000E6DE0FDF900E666E0FDF62D9D950080F32
:10113000146EDACF15F0280EDB50010B020D14509F
:10114000F324E96EDA50F420EA6EFAC0EEFFFBC039
:10115000EDFF0001010E6B6F04D00ED902D00CD947
:101160008D72C650800B09E16350800B06E1C650BA
:10117000400B03E16350400B16E09070639CC69CEB
:10118000639EC69E720EE96E000EEA6EEE5000017E
:101190006E5D726FEE506F59736FEE507059746FD1
:1011A000EE507159756FDE6ADD6AF9D804E6050EF6
:1011B000145C000E155813E206D9CED804E6010ED1
:1011C000145C000E155806E2020EDB2A030EF5E34E
:1011D000DB2AF3D7DF2A010EE8E3DB2AE6D7040E89
:1011E000DBCF14F0DB2A050EDBCF15F001E3DB2AA1
:1011F000880E0D6E130E0E6E14C008F015C009F0A7
:1012000043EC0BF004C014F005C015F004500510B9
:1012100004E000016A5101E059D700016A5107E07A
:10122000B3D8960EE66E150EE66E000E06D0ACD85C
:10123000800EE66E150EE66E000E7DD8090ED3D830
:10124000020EE66E74D80001695106E0670EE66E84
:10125000150EE66E000E05D0470EE66E150EE66E14
:10126000000E69D8050EBFD8030EE66E60D876C0B2
:10127000E6FF77C0E6FF78C0E6FF79C0E6FF6EC004
:10128000E6FF6FC0E6FF70C0E6FF71C0E6FF72C008
:10129000E6FF73C0E6FF74C0E6FF75C0E6FF2F0EE1
:1012A000E66E150EE66E000E46D8110E9CD8E66A64
:1012B0003ED87CC0E6FF7DC0E6FF7AC0E6FF7BC07B
:1012C000E6FF0A0EDBCFE6FF0B0EDBCFE6FF080ED4
:1012D000DBCFE6FF090EDBCFE6FF1A0EE66E150E3A
:1012E000E66E000E28D80D0E7ED8E66E20D8EED61B
:1012F0006FD8E9CF14F0EACF15F0E9CFE6FFEACFD7
:10130000E6FF1200FD51E96EEA6AD890E936EA3646
:101310007A0EE926000EEA221200100EE66E270E63
:10132000E66EE66AE66A24DD6DD8E5521200E66AEA
:1013300061DD02EF0AF0E66E60D8EDEC0AF0146EA3
:101340001200EE6AEE6AEE6AEE6AEE6AEE6AEE6A23
:10135000EE6AEE6AEE6A1200020EDBCF14F0030EA4
:10136000DBCF15F0D8901550120047D834EC0AF0B6
:10137000146E070EF3EF09F000016A6B39D8060E00
:10138000DB6A070EDB6A1200290EDBCFE6FFE66A96
:10139000060EDBCFE6FF070EDBCFE6FF1200DECF47
:1013A00014F0DDCF15F0D89015501200D9CFE6FF1C
:1013B000E1CFD9FF1200B5EC0EF000091200E552A2
:1013C000E7CFD9FF1200020EDB6A030EDB6A1200C0
:1013D000FE51150DF3CFE9FFF4CFEAFF000EE92629
:1013E000010EEA221200E15E1450010EE66E1200B8
:1013F000A8DD400E666EA4EF07F0000EE66E020E4A
:0C140000E66E1200E552E552E5521200C3
:04140C00D9CFE6FF4F
:10141000DACFE6FFFA0EE3CFD9FFFB0EE3CFDAFF18
:10142000FC0EE3CFE9FFFD0EE3CFEAFFE9CFF3FFC8
:10143000EACFF4FFF80EE35003E1F90EE3500BE0BE
:10144000F80EE30602E2F90EE306DECFEFFFEE66EA
:10145000F1D7DD52EFD7FF0EE3CFDAFFE552FF0EF3
:10146000E3CFD9FFE5521200FB0EE3CFF6FFFC0EEF
:10147000E3CFF7FFFD0EE3CFF8FFFE0EE3CFE9FF6A
:10148000FF0EE3CFEAFFE9CFF3FFEACFF4FFF90E57
:10149000E35003E1FA0EE3500CE0F90EE30602E23A
:1014A000FA0EE3060900F5CFEFFFEE66F0D70A006B
:1014B000EED71200FE0EE3CFE9FFFF0EE3CFEAFF07
:1014C000F36AF46AEE5203E0F34AF42AFBD71200FF
:1014D000FF0EE3CFF8FFE552FF0EE3CFF7FFE55233
:1014E000FF0EE3CFF6FFE552E66AE66AE66A090018
:1014F000F55209E0FD0EE32A05E1FE0EE32A02E1C2
:10150000FF0EE32AF4D7FD0EE3CF07F0FE0EE3CF84
:0A15100008F0FF0EE3CF09F012000F
:06151A00442025752C257C
:101520007520412025752C25752020202020004580
:10153000727220256C752C2023256C75202049257E
:101540006C752020202000546865204144432069A8
:101550007320576F726B696E672020202020202037
:101560002020202020200054686520414443206929
:101570007320446F6E652020202020202020200032
:101580005350492044202569202562202020202016
:101590002020202020005350492055202569202557
:1015A0006220202020202020202020002020202019
:1015B000202020202020202020202020202020202B
:1015C000202020200030353A34393A3033004F6340
:0A15D0007420313620323031320031
:0615DA00D9CFE6FFDACFD5
:1015E000E6FFE1CFD9FFE2CFDAFFE652E652E6525C
:1015F000E652D950F90F146EFF0EDA20156E020E66
:1016000014C0DBFF030E15C0DBFF020EDBCFE6FFCD
:10161000030EDBCFE6FFF90EDBCFE6FFFA0EDBCFE2
:10162000E6FFFB0EDBCFE6FFD950FC0FE66EFF0EA8
:10163000DA20E66E24EC00F0146E070EE15C02E2A4
:10164000E16AE552E16E1450F3CFDEFFF4CFDDFF27
:10165000FC0EDBCFE9FFFD0EDBCFEAFFEF6ADECF4A
:1016600014F0DDCF15F014C0F3FF15C0F4FF040E25
:10167000E15C02E2E16AE552E16EE552E5CFDAFFB4
:06168000E7CFD9FF1200C4
:0A168600006A0EAE4CEF0BF00D6C85
:101690000E1EE86A0E22001E09AE54EF0BF0086C15
:1016A000091EE86A0922001E9FEC0EF009BE64EFD5
:1016B0000BF000AE000C086C091EE86A0922046CED
:1016C000051EE86A0522000C00BE5BEF0BF00188E6
:1016D000FF0C09C013F008C012F008500D02F4CF3F
:1016E00007F0F3CF06F009500E02F4CF09F0F3CF64
:1016F00008F00D02F3500726F4500822E86A092288
:1017000012500E02F3500726F4500822E86A09220C
:101710000EAE8FEF0BF01250085E1350095A13AE45
:0C172000000C0D50085E0E50095A000C21
:04172C000E0EF66E39
:10173000000EF76E000EF86E0F010900F550056FF0
:101740000900F550066F03E1056701D03DD009009F
:10175000F550006F0900F550016F0900F550026F58
:1017600009000900F550E96E0900F550EA6E09001C
:1017700009000900F550036F0900F550046F0900D6
:101780000900F6CF07FFF7CF08FFF8CF09FF00CF1A
:10179000F6FF01CFF7FF02CFF8FF0F01035302E17D
:1017A000045307E00900F550EE6E0307F8E2040762
:1017B000F9D707CFF6FF08CFF7FF09CFF8FF0F01E2
:0A17C0000507000E065BBFD71200FC
:0617CA00D9CFE6FFE1CFDC
:1017D000D9FF0F0E8716991699949992999690941D
:1017E00090929096EEEC06F0300E33D8050EE66E31
:1017F00088EC0EF0E552300E2CD8010EE66E88EC27
:101800000EF0E552320E25D829D8FEE127D8FEE1A8
:10181000FE0EDBCFE6FF00EC0EF0E5521FD8FEE136
:10182000080E17D81BD8FEE10F0E13D817D8FEE10B
:10183000010E0FD813D8FEE1130E0BD80FD8FEE11E
:10184000800EE66E71EC0DF0E552E552E7CFD9FF60
:101850001200E66E00EC0EF0E5521200B5EC0EF050
:041860000009120069
:0C186400D9CFE6FFDACFE6FFE1CFD9FFD5
:10187000E2CFDAFFFB0EDBCF14F0FC0EDBCF15F06E
:101880000001800E15141AE1FB0EDBCFE9FFFC0E00
:10189000DBCFEAFFEECFF3FFEDCFF4FFEE2A000E31
:1018A000EF22F3CFE9FFF4CFEAFFFD0EDBCFEFFF2E
:1018B000EF50156AF36E15C0F4FF10D0FB0EDB502D
:1018C000FE0806E1FD0EDBCFE6FFFBEC0EF005D0D7
:1018D000FD0EDBCFE6FF03EC00F0E552E552E5CF6D
:0818E000DAFFE7CFD9FF120087
:0818E80006500B02F3CF02F0E1
:1018F000F4CF03F00C02F3500326000EF420046E24
:1019000006500D02F3500426000EF420056E06501A
:101910000E02F350052607500B02F3500326F45035
:101920000422000E052207500C02F3500426F45046
:10193000052207500D02F350052608500B02F35004
:101940000426F450052208500C02F35005260950D5
:081950000B02F3500526120002
:08195800D9CFE6FFDACFE6FF6C
:10196000E1CFD9FFE2CFDAFFC26AC06AFC0EDB40EA
:101970007F0B3C0BC26EFC0EDB38F00B300B146E91
:10198000FB0EDB500F0B1410C16EFD0EDB50040D6F
:10199000F350380B156EFD0EDB380F0B070B146E72
:1019A000FD0EDB50800B14101510C06EFC0EDBAE6C
:1019B00003D09E9C9D8CF28CC280E552E5CFDAFF6D
:0619C000E7CFD9FF120081
:0A19C600D9CFE6FFDACFE6FFE1CF4C
:1019D000D9FFE2CFDAFF3F0E6416636AFD0EDB50DB
:1019E0006312FB0EDB506412FC0EDB50030A09E0AD
:1019F000010A04E0020A06E1648C04D0648C638866
:101A000001D06388FD0EDB50050A03E0010A03E103
:101A1000958E958C01D0959C958A9598638AE55210
:0A1A2000E5CFDAFFE7CFD9FF12008F
:061A2A00D9CFE6FFDACF80
:101A3000E6FFE1CFD9FFE2CFDAFF3F0EC716C66A55
:101A4000FD0EDB50C612FB0EDB50C712FC0EDB5046
:101A5000030A09E0010A04E0020A06E1C78C04D087
:101A6000C78CC68801D0C688FD0EDB50050A03E08E
:101A7000010A03E1978E948601D094969488949AF3
:0E1A8000C68AE552E5CFDAFFE7CFD9FF1200A4
:021A8E00D9CFAE
:101A9000E6FFE1CFD9FF19D814E0B5EC0EF000094C
:101AA000FCE113D8E66EDDEC0DF0E552D950FC0FE9
:101AB000E96EFF0EDA20EA6EEE2A000EEE22EE222A
:101AC000EAD7E552E7CFD9FF1200FC0EDBCFF6FFD5
:101AD000FD0EDBCFF7FFFE0EDBCFF8FF0800F55061
:021AE0001200F2
:0E1AE200D9CFE6FFE1CFD9FF0F0E9916871678
:101AF000FE0EDB508009F00B8712909490920ED866
:101B00000F0E8716FE0EDB38F00BF00B871206D88F
:101B1000F00E9912E552E7CFD9FF1200E1EC06F082
:0A1B20009086E1EC06F090961200AA
:061B2A00D9CFE6FFE1CF78
:101B3000D9FF0F0E99168716FE0EDB504009F00BE9
:101B40008712909490920ED80F0E8716FE0EDB38F7
:101B5000F00BF00B871206D8F00E9912E552E7CF82
:101B6000D9FF1200E1EC06F09086E1EC06F09096C9
:021B7000120061
:0E1B7200056A046A036A026A200EE76ED890C4
:101B80000636073608360936023603360436053679
:101B90000B50025C0C5003580D5004580E50055861
:101BA00009E30B50025E0C50035A0D50045A0E50BC
:0A1BB000055A062AE72EE4D71200BA
:061BBA00D9CFE6FFE1CFE8
:101BC000D9FF0F0E99168716FE0EDB50F00B871209
:101BD000908290940ED80F0E8716FE0EDB38F00B15
:101BE000F00B871206D8F00E9912E552E7CFD9FF15
:101BF0001200E1EC06F09086E1EC06F090961200FF
:101C0000D9CFE6FFE1CFD9FF0F0E99168716FE0E4A
:101C1000DB50F00B8712909490920ED80F0E87161F
:101C2000FE0EDB38F00BF00B871206D8F00E99127F
:101C3000E552E7CFD9FF1200E1EC06F09086E1EC27
:061C400006F09096120070
:0A1C4600D9CFE6FFE1CFD9FFE65247
:101C500090849082E1EC06F09086E1EC06F0F00EC4
:101C60008714DF6E9096E1EC06F09086E1EC06F0CA
:101C700087380F0B0F0BDF12909690929094DF50E5
:0A1C8000E552E552E7CFD9FF12004C
:061C8A00D9CFE6FFE1CF17
:101C9000D9FFE65290849092E1EC06F09086E1EC58
:101CA00006F0F00E8714DF6E9096E1EC06F0908659
:101CB000E1EC06F087380F0B0F0BDF129096909433
:0E1CC0007F0EDF14E552E552E7CFD9FF120088
:021CCE00D9CF6C
:101CD000E6FFE1CFD9FF14D80FE0B5EC0EF0000914
:101CE000FCE10ED8E66EDDEC0DF0E552FD0EDB2AD0
:101CF000FE0EF1E3DB2AEFD7E552E7CFD9FF120062
:101D0000FD0EDBCFE9FFFE0EDBCFEAFFEF50120046
:101D1000FF0EE3501E6EEF0E01D0F30EE76EE72EBE
:101D20008FEF0EF00C0E1D6EE76AE72E95EF0EF0AA
:0E1D30001D2E94EF0EF01E2E8DEF0EF0120001
:021D3E00056A34
:101D4000046A100EE76ED890083609360436053658
:101D50000D50045C0E50055805E30D50045E0E5006
:0A1D6000055A082AE72EF0D71200FA
:061D6A0090849092E1EC70
:101D700006F09086E1EC06F087AE02D003D8010CA5
:101D800001D8000C9096E1EC06F09086E1EC06F0AC
:061D9000909690941200F1
:0A1D9600F36AF46AFF0EE124E96E1F
:101DA000FF0EE220EA6EED6607D02F0EEF6404D03E
:0A1DB0003A0EEF6001D0F32A120092
:061DBA00600EF36E00EE66
:101DC00000F00F0E01D81200EA6002D0EE6AFCD7D4
:0A1DD000F350E9601200EE6AFCD740
:061DDA001EEE00F02EEEEB
:101DE00000F0F86A019C96EC0BF012EC0FF0D7ECC7
:061DF00007F0FBD7120012
:0A1DF600FF0EE350ACBA04D0AF6A50
:101E0000AB8EAC8A949CACA2FED7AD6EF36EF46A36
:021E10001200BE
:0E1E120030313233343536373839616263642B
:031E2000656600F4
:021E24001200AA
:0A1E2600CE1500C5150000000000F5
:101E300000000000000000000000000000000000A2
:101E40000000000000000000000000000000000092
:101E50000000000000000000000000000000000082
:101E60000000000000000000000000000000000072
:101E70000000000000000000000000000000000062
:101E80000000000000000000000000000000000052
:101E90000000000000000000000000000000000042
:101EA0000000000000000000000000000000000032
:101EB0000000000000000000000000000000000022
:051EC0000000C8000055
:020000040030CA
:0100010006F8
:0100020019E4
:010003001EDE
:010006008178
:00000001FF
