:020000040000FA
:060000002AEF02F01200DD
:020006001200E6
:060008000EEF00F01200F3
:02000E000100EF
:0C00100070040000600000008A00000086
:04001C00DACFE4FF54
:10002000E9CFE4FFEACFE4FFE652D9CFE6FFE6529C
:100030009EAC22D09E9C0001622B000E63236423A1
:100040006523C450F350C324E66E6051E96EEA6A3A
:10005000D890E936EA366A0EE926000EEA22E55221
:10006000E750EE6EED6A64C000F065C001F0026A10
:10007000036A0050916E8D709EA610D09E96C9CFD7
:10008000F4F08D72FD0E0001F45D04E1FD0EC96E09
:100090008D7CC282FF0EF45D01E1C968A4AE11D06F
:1000A000A49E66CFF5F08D74FF0E0001F55D01E1B1
:1000B0008D76FD0EF55D01E18D78FE0EF55D01E1B9
:1000C0008D7AE552E552E7CFD9FFE552E5CFEAFF59
:1000D000E5CFE9FFE5CFDAFF1100D9CFE6FFE1CFA9
:1000E000D9FF050EE12693688D689168966A976A34
:1000F0009A6A99909080030EC16E92809282928447
:100100009286928A97809782978497869788978A13
:10011000978CF30EE66E840EE66EE6687FEC01F0D7
:10012000E552E552E5529D8C9F8C550EC96EE66AEC
:10013000010EE66E050EE66EE8EC01F0E552E552C2
:10014000E552800EE66E010EE66EE66EB6EC01F04C
:10015000E552E552E552C96866689E969D86A49E62
:10016000A38EF28CF28E66686668DE6ADD6A71D8EC
:1001700004E6E80E065C030E075816E2020EDB6A80
:10018000030EDB6A5DD804E6640E065C000E0758B9
:1001900006E2020EDB2A030EF5E3DB2AF3D7DF2AA1
:1001A000010EE5E3DB2AE3D7639CC69C639EC69EF3
:1001B0008D7EFD0E666E0001F55D01E06668C6503D
:1001C000800B09E16350800B06E1C650400B03E150
:1001D0006350400B16E09070639CC69C639EC69E65
:1001E000660EE96E000EEA6EEE500001625D666F0B
:1001F000EE506359676FEE506459686FEE50655961
:10020000696FDE6ADD6A25D804E6010E065C000E21
:100210000758CEE2020EDB6A030EDB6A11D804E651
:10022000010E065C000E075806E2020EDB2A030EE2
:10023000F5E3DB2AF3D7DF2A010EE5E3DB2AE3D778
:10024000020EDBCF06F0030EDBCF07F0D89007508D
:100250001200DECF06F0DDCF07F0D8900750120075
:100260000E0EF66E000EF76E000EF86E000109001D
:10027000F550EF6F0900F550F06F03E1EF6701D023
:100280003DD00900F550EA6F0900F550EB6F090009
:10029000F550EC6F09000900F550E96E0900F550C2
:1002A000EA6E090009000900F550ED6F0900F550EC
:1002B000EE6F09000900F6CFF1F0F7CFF2F0F8CFBA
:1002C000F3F0EAC0F6FFEBC0F7FFECC0F8FF000167
:1002D000ED5302E1EE5307E00900F550EE6EED0735
:1002E000F8E2EE07F9D7F1C0F6FFF2C0F7FFF3C06E
:0E02F000F8FF0001EF07000EF05BBFD7120011
:0202FE00D9CF56
:10030000E6FFDACFE6FFE1CFD9FFE2CFDAFFC26A3C
:10031000C06AFC0EDB407F0B3C0BC26EFC0EDB3870
:10032000F00B300B066EFB0EDB500F0B0610C16E90
:10033000FD0EDB50040DF350380B076EFD0EDB385D
:100340000F0B070B066EFD0EDB50800B061007101F
:10035000C06EFC0EDBAE03D09E9C9D8CF28CC280E6
:0C036000E552E5CFDAFFE7CFD9FF12002D
:04036C00D9CFE6FF00
:10037000DACFE6FFE1CFD9FFE2CFDAFF3F0E641616
:10038000636AFD0EDB506312FB0EDB506412FC0E41
:10039000DB50030A09E0010A04E0020A06E1648C6A
:1003A00004D0648C638801D06388FD0EDB50050A9D
:1003B00003E0010A03E1958E958C01D0959C958A06
:1003C0009598638AE552E5CFDAFFE7CFD9FF1200AF
:1003D000D9CFE6FFDACFE6FFE1CFD9FFE2CFDAFFF0
:1003E0003F0EC716C66AFD0EDB50C612FB0EDB5071
:1003F000C712FC0EDB50030A09E0010A04E0020AFE
:1004000006E1C78C04D0C78CC68801D0C688FD0E13
:10041000DB50050A03E0010A03E1978E948601D0C0
:1004200094969488949AC68AE552E5CFDAFFE7CF8E
:04043000D9FF1200DE
:0C043400600EF36E00EE00F00F0E01D819
:100440001200EA6002D0EE6AFCD7F350E9601200B5
:04045000EE6AFCD77D
:0C0454001EEE00F02EEE00F0F86A059C91
:1004600030EC01F003EC00F06DEC00F0FBD7120073
:10047000000000000000000000000000000000007C
:10048000000000000000000000000000000000006C
:10049000000000000000000000000000000000005C
:1004A000000000000000000000000000000000004C
:1004B000000000000000000000000000000000003C
:1004C000000000000000000000000000000000002C
:1004D000000000000000000000000000000000001C
:1004E000000000000000000000000000000000000C
:0A04F0000000000000000000000002
:020000040030CA
:0100010006F8
:0100020019E4
:010003001EDE
:010006008178
:00000001FF
