:020000040000FA
:06000000FAEF02F012000D
:020006001200E6
:060008000EEF00F01200F3
:02000E000100EF
:0C0010002506000000030000A200000014
:04001C00DACFE4FF54
:10002000E2CFDAFFE9CFE4FFEACFE4FFF3CFE4FF6A
:10003000F4CFE4FFE652F2A434D0F29403016A0E46
:10004000AF6F670EB06FB0C3D7FFAFC3D6FF1A0E46
:10005000E96E030EEA6EEE500301165D006EEE507F
:1000600003011759016EEE5003011859026EEE504C
:1000700003011959036E0A0E005C000E0158000EB0
:100080000258000E035808E204008B828B828B8298
:100090008B828B828B828B820301AC6B03010A6B98
:1000A0008B909EAC3FD09E9C03010E2B000E0F2325
:1000B000102311230301A151E96EEA6AD890E936B1
:1000C000EA361E0EE926030EEA22C3CFEEFFC4CFA6
:1000D000EDFF0301AD5115E00301A151E96EEA6A9C
:1000E000D890E936EA361E0EE926030EEA22EECF54
:1000F00000F0EFCF01F001C000F0016A00506F6E18
:100100000DD00301A151E96EEA6AD890E936EA36CA
:100110001E0EE926030EEA22EF506F6E0301010E58
:10012000096F8B72A4AE9DD0A49E0301162B000E06
:100130001723182319236FCFFCF1F00E0101FC15D2
:100140000301AE6F800E0301AE5D04E0C00E03013B
:10015000AE5D36E1400E0101FC15000805E2030129
:10016000010EAD6F8B9203D00301AD6B8B820F0E2E
:100170000101FC150301A16F0301A151040803E271
:10018000070E0301A1270301A151130802E2030195
:10019000A16BC2B20FD0C30EC214006E0301A151F5
:1001A000040DF3503C0B0010C26E0301096BC282B8
:1001B0008B7206D0C2926E0E6F6E0301096B8B724A
:1001C000400E0101FC5D03E16E0E6F6E8B72900EAE
:1001D0000101FC5D46E1C2B241D00301AD510EE028
:1001E0000301A151E96EEA6AD890E936EA361E0E9B
:1001F000E926030EEA22EF506F6E14D00301A151DD
:10020000E96EEA6AD890E936EA361E0EE926030E50
:10021000EA22EECF00F0EFCF01F001C000F0016A5A
:1002200000506F6E8B7216C31AF317C31BF318C3FB
:100230001CF319C31DF304000301010E0A6F03012F
:10024000010EAC6F8B8003016A0EAF6F670EB06F4B
:10025000B0C3D7FFAFC3D6FFF29403D08B726E0E3C
:100260006F6EE552E5CFF4FFE5CFF3FFE5CFEAFF90
:10027000E5CFE9FFE5CFDAFF1100D9CFE6FFE1CF07
:10028000D9FF0301B16BB26BB36BB46BD950FB0FE9
:10029000E96EFF0EDA20EA6E0301B151EE5C030154
:1002A000B251EE580301B351EE580301B451EE5868
:1002B00009E3000004000301B12B000EB223B323B5
:1002C000B423E4D7E552E7CFD9FF1200700ED36E06
:1002D000C00E9B6EFC0E946E8B6A929C93829384EC
:1002E000939693809280928292849286928A938847
:1002F0009380938A948494869488948A948C948E20
:100300009388938A938C938E0F012F0E386F300E43
:10031000396FFC0E3A6FE00E426FF80EE66E830EF8
:10032000E66EEB0EE66E5CEC02F0E552E552E5524D
:100330009D8C9F8CE66A030EE66E040EE66E8CECD6
:1003400002F0E552E552E552400E6F6E970EE66EF2
:10035000CEEC02F0E5526A0EE66E670EE66EB2EC87
:1003600002F0E552E552A49EA38ED08EF28E6C9CD4
:100370006C9E1200D9CFE6FFE1CFD9FF090EE1262E
:10038000040EDB6A050EDB6A060EDB6A070EDB6A0B
:100390009DDF6C50800B03E16C50400B13E06C9CB4
:1003A0006C9E120EE96E030EEA6EEE5003010E5DB6
:1003B000126FEE500F59136FEE501059146FEE502C
:1003C0001159156FDE6ADD6ADECF06F0DDCF07F06A
:1003D000D890075004E6010E065C000E0758D9E2DB
:1003E000020EDB6A030EDB6A020EDBCF06F0030EA1
:1003F000DBCF07F0D890075004E6010E065C000E34
:10040000075806E2020EDB2A030EEEE3DB2AECD7E6
:0A041000DF2A010ED9E3DB2AD7D75B
:06041A000E0EF66E000E4E
:10042000F76E000EF86E03010900F550A76F090082
:10043000F550A86F03E1A76701D03DD00900F55042
:10044000A26F0900F550A36F0900F550A46F0900D1
:100450000900F550E96E0900F550EA6E090009003F
:100460000900F550A56F0900F550A66F09000900B5
:10047000F6CFA9F3F7CFAAF3F8CFABF3A2C3F6FFF9
:10048000A3C3F7FFA4C3F8FF0301A55302E1A653DA
:1004900007E00900F550EE6EA507F8E2A607F9D7C8
:1004A000A9C3F6FFAAC3F7FFABC3F8FF0301A70771
:0804B000000EA85BBFD712008B
:0804B800D9CFE6FFDACFE6FF21
:1004C000E1CFD9FFE2CFDAFFC26AC16AC06AFC0E8F
:1004D000DB507C0BC26EFB0EDB50C16EFD0EDB50A1
:1004E000040DF350380B076EFD0EDB380F0B070BB6
:1004F000066EFD0EDB50800B06100710C06EFC0E62
:10050000DBAE03D09E9C9D8CF28CC280E552E5CF81
:08051000DAFFE7CFD9FF12006A
:08051800D9CFE6FFDACFE6FFC0
:10052000E1CFD9FFE2CFDAFF3F0E6D166C6AFD0E08
:10053000DB506C12FB0EDB506D12FC0EDB50030A1D
:1005400009E0010A04E0020A06E16D8C04D06D8C1A
:100550006C8801D06C886C8AE552E5CFDAFFE7CF72
:04056000D9FF1200AD
:0C056400D9CFE6FFDACFE6FFE1CFD9FFE8
:10057000E2CFDAFFE652E652FC0EDBCFDEFFDBCF46
:10058000DDFF010EDB50D76EDF50D66EE552E5522F
:0C059000E552E5CFDAFFE7CFD9FF1200FB
:04059C00D9CFE6FFCE
:1005A000DACFE6FFE1CFD9FFE2CFDAFFFD0EDB5075
:1005B0007F0BD56ED76AD66AF294FD0EDBAE02D001
:1005C000F28A01D0F29AD58EE552E5CFDAFFE7CF75
:0405D000D9FF12003D
:0C05D400000EF36E00EE00F0060E01D8E1
:1005E0001200EA6002D0EE6AFCD7F350E960120014
:0405F000EE6AFCD7DC
:0C05F40015EE00F025EE00F0F86A059C02
:100600000DEC02F003EC00F0BAEC01F0FBD71200A5
:1006100030383A34323A3437004A616E203138206B
:0506200032303133000F
:0B062500190600100600000000000095
:1006300000000000000000000000000000000000BA
:1006400000000000000000000000000000000000AA
:10065000000000000000000000000000000000009A
:10066000000000000000000000000000000000008A
:10067000000000000000000000000000000000007A
:10068000000000000000000000000000000000006A
:10069000000000000000000000000000000000005A
:1006A000000000000000000000000000000000004A
:1006B000000000000000000000000000000000003A
:0706C0000000000000C8006B
:020000040030CA
:0100010038C6
:0100020019E4
:010003002BD1
:01000500BD3D
:010006008178
:00000001FF
