:020000040000FA
:0600000054EF0FF01200A6
:020006001200E6
:060008001FEF06F01200DC
:02000E000100EF
:0C001000F41E000000030000A40000002B
:04001C004AEC05F0B5
:10002000FB0EDBCFF3FFDB06F35000090AE098EC90
:1000300005F0FA0E03EC06F0F3E1151CF1E1010EF8
:1000400001D0000E79EF05F04AEC05F03B0EE124FB
:1000500002E3E168E652E16E010EDB6A020EDB6A42
:10006000F90EDBCFF6FFFA0EDBCFF7FFFB0EDBCF8F
:10007000F8FF0800F550DF6EDF5002E19DEF04F05D
:10008000250EDF5C02E090EF04F0030EDB6A040E45
:10009000DB6A050EDB6A060EDB6A070EDB6AB2EC72
:1000A00004F02D0EDF5C0CE02B0EDF5C09E0200E6F
:1000B000DF5C06E0230EDF5C03E0300EDF5C1AE15C
:1000C000DF50300A14E0130A0FE0030A0AE00B0ABB
:1000D00005E0060AE4E1030EDB80E1D7030EDB82D4
:1000E000DED7030EDB84DBD7030EDB86D8D7030E07
:1000F000DB88D5D72A0EDF5C1BE1AEEC04F0FCEC0C
:1001000004F010E0030EDB8008680968130EDBCFF3
:100110000DF0140EDBCF0EF0CAEC0BF0040E06C08F
:10012000DBFF03D0130EE5EC04F0B2EC04F00BD0CF
:10013000090EDB6A53EC05F003E0C7EC05F0FAD7D3
:10014000090EE5EC04F0030EDBB0DB982E0EDF5C4D
:100150001BE1B2EC04F02A0EDF5C0BE1AEEC04F024
:10016000FCEC04F003E1130E37EC05F0B2EC04F004
:100170000BD0090EDB6A53EC05F003E0C7EC05F089
:10018000FAD7090E37EC05F0680EDF5C07E1B2EC38
:1001900004F0680EDF5C1DE1030E18D0740EDF5C06
:1001A00017E07A0EDF5C14E0480EDF5C06E0540EC8
:1001B000DF5C03E05A0EDF5C02E1020E07D06C0E3A
:1001C000DF5C03E06A0EDF5C04E1010E8AEC05F0FF
:1001D000C9DBDF506E0A01E17FD31E0A01E192D133
:1001E000200A01E18FD13F0A01E149D11A0A01E158
:1001F00046D10D0A01E143D1200A01E140D13A0A7A
:1002000001E13DD1200A01E13AD1260A01E135D1CF
:100210000D0A01E132D11A0A01E1D9D0200A4AE0DF
:10022000300A1FE0460A0EE0250A01E083D3D950C8
:10023000F90FE96EFF0EDA20EA6E010EEE5E000E97
:10024000EE5AEE5A98EC05F0250EE66E95DB03E1CA
:10025000151C01E169D394EC05F001E26BD3DB2AB4
:1002600069D3080EDB6A040EDB50010806E2040EB7
:10027000DB045CEC05F0DB508BDB080EDB5009E0A7
:10028000030EDB50010B05E172DB01E04DD3080EDC
:10029000DB6A64DBEFCFDFFF0CEC06F003E1151C3B
:1002A00001E142D394EC05F001E3DB2A60DB01E1DC
:1002B00041D33AD3070EDB5002080FE1D8EC05F02A
:1002C000030E9FEC05F00E0EEECFDBFF0F0EEECF10
:1002D000DBFF100EEECFDBFF20D0F70EDBCF17F0E9
:1002E000F80EDBCF18F0020E175E000E185AF70E4C
:1002F00017C0DBFFF80E18C0DBFF17C0E9FF18C0FE
:10030000EAFF8FEC05F0166A0E0E14C0DBFF0F0E2D
:1003100015C0DBFF100E16C0DBFF0E0EDBCFE6FFB5
:100320000F0EDBCFE6FF100EDBCFE6FFCBEC0AF0C3
:10033000E552E552E552130E07C0DBFF140E08C06C
:10034000DBFF060EDB5005E0130ED3EC05F001E2F7
:100350006ADBF7EC05F002E2130E37DBBAEC05F0CE
:1003600006E0040ED3EC05F002E2050E2EDB030ED0
:10037000DBB005D0FCDA01E0D7D2080EDB6A090E4B
:10038000DB6A0E0EDBCFF6FF0F0EDBCFF7FF100E92
:10039000DBCFF8FF0800F550DF6EDF5014E0FDEC16
:1003A00005F011E20CEC06F003E1151C01E1BCD2F2
:1003B000BBDB01E3DB2A090EDB2AD9500E0FE96E05
:1003C000000ECBDBE7D7D3DA01E1B4D2ADD2C6DA87
:1003D000110EEECFDBFF120EEDCFDBFF110EDBCFE8
:1003E000E6FF120EDBCFE6FFBDEC0AF0E552E55268
:1003F000130EF3CFDBFF140EF4CFDBFF060EDB5042
:1004000004E0130ED0DB01E20EDBF7EC05F002E2B4
:10041000130EDBDAAFDB05E0040EC5DB02E2050EEE
:10042000D4DA030EDBB005D0A2DA01E07DD2080EEB
:10043000DB6A090EDB6A110EDBCFE9FF120EDBCFA0
:10044000EAFFEFCFDFFFDF5014E0D7DB12E2E4DB9F
:1004500003E1151C01E168D267DB01E3DB2A090E29
:10046000DB2A110EDB2ADBCFE9FF120EE8E3DB2AE1
:10047000E6D77DDA01E15ED257D2030EDB8E070E9E
:10048000DB0410E195DB040E5ADB0A0EEECFDBFF36
:100490000B0EEECFDBFF0C0EEECFDBFF0D0EEECF23
:1004A000DBFF6CD0070EDB5003082CE1030EDBAE44
:1004B0000DD0B2DA020E76DAEFCF14F0156A166AB2
:1004C000176A14AE39D01568166835D0F70EDBCF31
:1004D00015F0F80EDBCF16F0020E155E000E165A60
:1004E000F70E15C0DBFFF80E16C0DBFF15C0E9FFE5
:1004F00016C0EAFFEFCF14F00A0E14C0DBFF0B0E9C
:10050000DB6A38D0070EDB50020809E1030EDBAED0
:1005100004D059DB16AE10D00ED055DB0DD0030E33
:10052000DBAE12D079DA020E3DDAF9DA166A176A12
:1005300015AE02D016681768E2DA0C0E16C0DBFFA3
:100540000D0E17C0DBFF1AD0F70EDBCF16F0F80E3A
:10055000DBCF17F0020E165E000E175AF70E16C00C
:10056000DBFFF80E17C0DBFF16C0E9FF17C0EAFF7C
:10057000D6DAC5DA0C0EDB6A0D0EDB6A060EDB502E
:1005800005E1010EF36E050EF3CFDBFF150EDB6AFE
:10059000160EDB6AD950370F146E000EDA20156E76
:1005A000390E14C0DBFF3A0E15C0DBFF380EDB6AD4
:1005B000080EDB6A0A0EAEDADF50780A12E0200A73
:1005C00010E0280A0CE0200A0AE03F0A06E00D0AC3
:1005D00002E0200A08E1020E05D0080E03D0080E42
:1005E000DF26100E97DA030EDBBE02D0DB92DB941F
:1005F000DB50800B24E08ADAD890030EEB50000A1F
:1006000008E6000EEE5C000EEE58000EEE58000EEE
:10061000EE5815E213DA0B680C680D680E68D5EC1D
:100620000CF00A0E02C0DBFF0B0E03C0DBFF0C0E4A
:1006300004C0DBFF0D0E05C0DBFF2D0E08D0030E3E
:10064000DBA202D02B0E03D0DBA408D0200EF36E69
:10065000170EF3CFDBFF150EDB2A02D0170EDB6A75
:10066000050EDB5003E1B7D901E189D0E00E146E2D
:100670001E0E156E000E166E070EDBCF17F0186AF1
:10068000196A1A6A17C00BF018C00CF019C00DF0E7
:100690001AC00EF0D3D9E8EC0DF014500224F36E1A
:1006A00015500320F46E16500420F86EF4CFF7FFB7
:1006B000F3CFF6FF0800090EF5CFDBFF580EDF5C25
:1006C0000FE1610EF36E090E7BD90AE3200E146E62
:1006D000090EDBCFE7FF1450E75E090EE7CFDBFF23
:1006E000070EDBCF14F0156A166A176A0FDA14C00A
:1006F0000BF015C00CF016C00DF017C00EF0EECFC9
:1007000006F0EECF07F0EECF08F0EFCF09F0E8ECFF
:100710000DF009C0EDFF08C0EDFF07C0EDFF06C0FA
:10072000EFFF390EDBCFE9FFDB063A0EDBCFEAFF46
:1007300001E2DB06090EDBCFEFFF150EDB2A4BD9FA
:1007400095E1030EDBA61DD06F0EDF5C06E1C1D97B
:1007500018E3150EDB285BDA14D0780EDF5C09E0B5
:10076000580EDF5C06E0620EDF5C03E0420EDF5CE9
:1007700008E1020EF36E160EF3CFDBFF02D0150E6A
:10078000DB6A030EDB50100B0EE0040EDBCF14F01F
:10079000050EDB50D880145406E2060EDB5003E150
:1007A000040EDB5034DA95D90AE2050EDBCFE7FF01
:1007B000150EDB50E75E050EE7CFDBFF02D0050E1E
:1007C000DB6A040EDBCF14F0160E45D9D880145422
:1007D00014E2160EDBCFE6FF150EDBCFE6FF040EAC
:1007E000DBCFE6FF050EDB50E552E75CE552D88033
:1007F000E754E552D880E7545FD9030EDB50010B74
:100800000BE1080EDB5008E0B2D801E08DD0080EF5
:10081000DB50BED8080EDB6A170EDB5007E088D924
:10082000170EF1D903E1151C01E17ED0160EDB5045
:1008300016E07ED9300EE66E9FD802E1151C74E0FA
:1008400077D9DFCFE6FF93EC0CF0E552E552E552A5
:10085000F4CF15F00001F31C02E1151C65E0050E54
:10086000DBCF14F0160EDB50D880145409E2050ECD
:10087000DBCFE7FF160EDB50E75E050EE7CFDBFFB1
:10088000300EE66E050ECBD94FE1390EDB2ADBCFF9
:10089000E9FF3A0E01E3DB2ADBCFEAFF090EEFCFD7
:1008A000DBFFDB500EE044D9090EADD902E1151C87
:1008B0003BE0390EDB2ADBCFE9FF3A0EEDE3DB2A22
:1008C000EBD755D831E1160EDBCFE6FF080EC3D8C3
:1008D000E552E7245DD82ED0070EDB50030A1CE05A
:1008E000010A14E0030A07E07BD9DBCFEEFF020E1A
:1008F000DBCFEDFF1FD0F5D8196A17AE02D018680C
:1009000019682CD8BCD819C0EEFF14D0EAD817BE8D
:10091000186824D8B4D80ED063D9DBCFEFFF0AD043
:100920007BD905E1151C03E1F368F46810D0FCD80D
:1009300001E3DB2A79D939EF00F0010EDBCF14F0A7
:10094000020EDBCF15F014C0F3FF15C0F4FF3B0E11
:10095000E15C02E2E16AE552E16ECBD029D9020EF8
:100960009FEF05F061D90800F550DF6E1200200EF0
:10097000E66E080E0FEF06F093EC0CF0E552E55230
:10098000E552F3CF14F0F4CF15F00001F31C120080
:10099000146E156AD950010F4DD91450EE2615501A
:1009A000ED221200185E000E195AF70E18C0DBFF78
:1009B000F80E19C0DBFF18C0E9FF19C0EAFF1200EA
:1009C000DBCFF4FFF350F45C1200DB50E76E040E53
:1009D000E7CFDBFF12000A0EDBCF14F00B0EDBCFEC
:1009E00015F00C0EDBCF16F00D0EDBCF17F0145008
:1009F0001510161017101200130EEECFDBFF140E99
:100A0000EDCFDBFF130EDBCF14F0140EDBCF15F0B0
:100A10000001800E15141200F70EDBCF18F0F80E4F
:100A2000DBCF19F01200050EDB50E66ED950130F24
:100A300001D9E552E750EE6EED6A12000A0EDBCFE7
:100A400006F00B0EDBCF07F00C0EDBCF08F00D0E1F
:100A5000DBCF09F01200DBCFE6FF150EDBCFE6FFA0
:100A6000050EDB50E552E724E552E7241200DB5087
:100A7000CED8010EF36E060EF3CFDBFF1200EE5060
:100A8000EFCFEAFFE96E16C0EEFF17C0EEFF18C009
:100A9000EEFF1200D9CFE6FFDACFE6FFE1CFD9FFB4
:100AA000E2CFDAFF1200DFCFE6FFE66A32EC0FF0AA
:100AB000E552E552F3501200E76E080EE7CFDBFF78
:100AC0001200EECF14F0EECF15F0EFCF16F0176A4C
:100AD0001200050EDBCF14F0150EDB50D880145435
:100AE0001200010EDBCF16F0020EDBCF17F0186AF2
:100AF0001200E552E5CFDAFFE7CFD9FF12000A0E68
:100B000014C0DBFF0B0E15C0DBFF1200D9500A0F1B
:100B10001AEF06F0F36E070EF3CFDBFF1200EECFF5
:100B200014F0EFCF15F01200010EDB2A020E1200B6
:100B3000FC0EDBCFE6FFFD0EDBCFE6FF1200145EFE
:100B4000000E155AF70E14C0DBFFF80E15C0DBFFC0
:100B500014C0E9FF15C0EAFF1200DA20EA6EEF2A9E
:100B6000EECFF6FF000EEF22EECFF7FFEF22EECF33
:100B7000F8FF1200040EDBCFE6FF130EDB50E55248
:100B8000E75C9ADFDB5004DF060EDB501200090E33
:100B9000DB500A0DF350DF24D00FE76E090EE7CFCC
:100BA000DBFFB2EF04F0DB50F36E050EE0EF04F074
:100BB000F70EDBCF14F0F80EDBCF15F01200DFCF0D
:100BC000E6FFBCEF04F028DF030EECDE61EF05F07A
:100BD0000EEC00F0E552E552E552E5520009120034
:100BE000BDDEEE50EFCFEAFFE96E010E1200130EEC
:100BF000DB50F36E040EE0EF04F0040EDB50F36EF6
:100C0000090EE0EF04F0DBCFE6FFBCEF04F0E76E87
:100C1000050EE7CFDBFF12008BDFDFEF05F0DBCF48
:100C2000E6FF86DFE8EF05F0D950F90FE96EFF0E19
:0E0C3000ADEF05F0E96E000EDA20EA6E12005C
:020C3E00DACF0B
:100C4000E4FFE2CFDAFFE9CFE4FFEACFE4FFF3CF3E
:100C5000E4FFF4CFE4FFE652F2A428D0F2940301BB
:100C60006A0EAE6F670EAF6FAFC3D7FFAEC3D6FFCE
:100C70001A0EE96E030EEA6EEE500301165D1B6E4E
:100C8000EE50030117591C6EEE50030118591D6EEA
:100C9000EE50030119591E6E0A0E1B5C000E1C5803
:100CA000000E1D58000E1E5801E204009EAC26D016
:100CB0009E9C03010E2B000E0F2310231123030112
:100CC000A151E96EEA6AD890E936EA361E0EE926A5
:100CD000030EEA22C3CFEEFFC4CFEDFF0301A15103
:100CE000E96EEA6AD890E936EA361E0EE926030E66
:100CF000EA22EF50666E0301010E096FA4AE75D0B3
:100D0000A49E0301162B000E17231823192366CF68
:100D1000FCF1F00E0101FC15800822E10F0E01012B
:100D2000FC150301A16F0301A1510B0802E20301AD
:100D3000A16BC2B20FD0C30EC2141B6E0301A1512E
:100D4000040DF3503C0B1B10C26E0301096BC282F1
:100D50008D7206D0C2924C0E666E0301096B8D74C3
:100D6000400E0101FC5D03E14C0E666E8D76900E27
:100D70000101FC5D24E1C2B21FD00301A151E96E63
:100D8000EA6AD890E936EA361E0EE926030EEA2210
:100D9000EECF1BF0EFCF1CF01CC01BF01C6A1B50E9
:100DA000666E8D7816C31AF317C31BF318C31CF3B2
:100DB00019C31DF3040003D08D7A4C0E666EA00E8D
:100DC0000101FC5D12E1C2B20ED00301A151E96E36
:100DD000EA6AD890E936EA361E0EE926030EEA22C0
:100DE000EF50666E02D04C0E666EE552E5CFF4FF12
:100DF000E5CFF3FFE5CFEAFFE5CFE9FFE5CFDAFF87
:100E00001100D9CFE6FFE1CFD9FF0301B06BB16B81
:100E1000B26BB36BD950FB0FE96EFF0EDA20EA6EAE
:100E20000301B051EE5C0301B151EE580301B25120
:100E3000EE580301B351EE5809E30000040003012A
:100E4000B02B000EB123B223B323E4D7E552E7CF92
:100E5000D9FF120000000301B46B0301A05103018C
:100E6000B45D04E200000301B42BF7D712000F0EAB
:100E7000E66EEFEC0EF0E5521200050EE66EEFECBA
:100E80000EF0E552120011DBFC0EDB502FE0FD0EE0
:100E9000DBCFE6FFFE0EDB50E552E7240301A36F34
:100EA000140EE66EE66A6E0EE66E160EE66E000E26
:100EB000E66EE1DA97EC0AF0166E070EE15E165068
:100EC000140EE66EE66A000EE66E020EE66E030192
:100ED000D2DA69EC0AF0166E060EE15E16500301D6
:100EE000EDDA140EE926000EEA22EF6AFD0EDB5061
:100EF000030A0CE0010A08E0030A04E0010A09E120
:100F0000E66A08D0400E03D0140E01D0540EE66EEF
:100F100001D0E66AA0EC0DF0E552FD0EDB500301B6
:100F20000D25A36FBEDAFEE10301A5DA96EC0EF003
:100F3000E552E552B6DAFEE1BDD20301C80EA06F5C
:100F4000A4DAAFDA1FE02B0EE66E46EC0CF0E552A9
:100F5000A8DAFEE19ADA2B0EE66E46EC0CF0E552CA
:100F6000A0DAFEE10C0EE66E2FEC0EF0E55299DAF7
:100F7000FEE1010EE66E2FEC0EF0E55286DA03017B
:100F8000180EA06F120091DA060EE126040EDB6A3D
:100F9000050EDB6ADE6ADD6ADECF14F0DDCF15F008
:100FA000D890155004E6010E145C000E15581DE291
:100FB000020EDB6A030EDB6A020EDBCF14F0030EB7
:100FC000DBCF15F0D890155004E6140E145C000E1B
:100FD000155806E2020EDB2A030EEEE3DB2AECD7FD
:100FE000DF2A010ED9E3DB2AD7D7060EE15C02E245
:100FF000E16AE552E16E5ED20301086B120055DA38
:10100000040EE126DE6ADE6ADE6ADD6ADD52DD524A
:10101000030108511DE1D9CFE9FFDACFEAFFEFCF95
:1010200014F0EE2A000EEFCF15F0EE22EFCF16F0FF
:10103000EE22EFCF17F0EF22D880500E1454C30EDB
:101040001554000E1654000E1754E2E2000E01D0A3
:10105000010E146E040EE15C02E2E16AE552E16EFB
:10106000145028D2D9CFE6FFE1CFD9FF0A0EE126EE
:10107000040EDB6A050EDB6A060EDB6A070EDB6A0E
:101080009368966A976A9A6A996A8D689168906877
:10109000959C958A9598958E030EC16E928092824A
:1010A00092849286928A978097829784978697886F
:1010B000978A978CF30EE66E840EE66EE6680DEC6A
:1010C0000DF0E552E552E5529D8C9F8CE66A010ECB
:1010D000E66E050EE66E44EC0DF0E552E552E55283
:1010E000970EE66ED3EC0EF0E5526A0EE66E670ED2
:1010F000E66EB7EC0EF0E552E552400E666EA49E29
:10110000A38EF28CF28E19DF140EE66EE66A03C32C
:10111000E6FF04C3E6FF05C3E6FF000EE66E020E1F
:10112000E66E97EC0AF0146E070EE15E1450010EA5
:10113000E66EE66AE66AA7DEE552E552E552140E6F
:10114000E66EE66A00C3E6FF01C3E6FF02C3E6FF00
:10115000000EE66E020EE66E97EC0AF0146E070EB5
:10116000E15E1450010EE66E010EE66EE66A8BDE5D
:10117000E552E552E552DE6ADD6ADECF14F0DDCFDE
:1011800015F0D890155004E6E80E145C030E1558BF
:101190001EE2020EDB6A030EDB6A020EDBCF14F0E6
:1011A000030EDBCF15F0D890155004E6E80E145C62
:1011B000030E155807E20400020EDB2A030E01E3BA
:1011C000DB2AEBD7DF2A010E01E3DB2AD6D7639CAB
:1011D000639E6350800B03E16350400B1BE09070F3
:1011E000639C639E120EE96E030EEA6EEE500301DD
:1011F0000E5D0301126FEE5003010F590301136FCF
:10120000EE50030110590301146FEE500301115900
:101210000301156FDE6ADD6ADECF14F0DDCF15F055
:10122000D890155004E6010E145C000E155801E329
:1012300017D1020EDB6A030EDB6A020EDBCF14F05D
:10124000030EDBCF15F0D890155004E6010E145CA8
:10125000000E155801E3FFD0040EDBCF14F0DB2A9B
:10126000050EDBCF15F001E3DB2A880E0D6E130EA1
:101270000E6E14C008F015C009F0A4EC0BF004C009
:1012800014F005C015F01450151004E003010A51C4
:1012900001E0DBD003010A5124E0090EDBCFE6FFB9
:1012A000E66A060EDBCFE6FF070EDBCFE6FF590E40
:1012B000E66E160EE66E000EE66E000EE66E020E8E
:1012C000E66E4EEC0BF0146E090EE15E1450010E4A
:1012D000E66E020EE66EE66AD6DDE552E552E552AE
:1012E00029D016C3E6FF17C3E6FF18C3E6FF19C3EC
:1012F000E6FF1AC3E6FF1BC3E6FF1CC3E6FF1DC3E0
:10130000E6FF430EE66E160EE66E000EE66E000E6B
:10131000E66E020EE66E4EEC0BF0146E0D0EE15E04
:101320001450010EE66E020EE66EE66AACDDE55282
:10133000E552E552030109511AE02A0EE66E160E37
:10134000E66E000EE66E000EE66E020EE66E4EECE7
:101350000BF0146E050EE15E1450010EE66E030EE6
:10136000E66EE66A90DDE552E552E55219D00A0EC6
:10137000E66E160EE66E000EE66E000EE66E020ECD
:10138000E66E4EEC0BF0146E050EE15E1450010E8D
:10139000E66E030EE66EE66A76DDE552E552E5524C
:1013A00016C3E6FF17C3E6FF18C3E6FF19C3E6FF3F
:1013B0000EC3E6FF0FC3E6FF10C3E6FF11C3E6FF4F
:1013C00012C3E6FF13C3E6FF14C3E6FF15C3E6FF2F
:1013D000F20EE66E150EE66E000EE66E000EE66E7E
:1013E000020EE66E4EEC0BF0146E110EE15E145020
:1013F000010EE66EE66AE66A46DDE552E552E55222
:101400000101FC51E66EE66A20C3E6FF21C3E6FF58
:101410001EC3E6FF1FC3E6FFE00EE66E150EE66E86
:10142000000EE66E000EE66E020EE66E4EEC0BF05F
:10143000146E0B0EE15E1450010EE66E010EE66EA8
:10144000E66A21DDE552E552E552020EDB2A030E83
:1014500001E3DB2AF2D6DF2A010E01E3DB2ADCD628
:10146000B8D60A0EE15C02E2E16AE552E16EE552AD
:10147000E7CFD9FF120022D8E9CF14F0EACF15F058
:10148000E9CFE6FFEACFE6FF1200100EE66E270E68
:10149000E66EE66AE66AB5DCE552E552E552E552EB
:1014A00012001CEC0FF000091200D9CFE6FFE1CFCB
:1014B000D9FF1200E552E7CFD9FF1200A351150D55
:1014C000F3CFE9FFF4CFEAFF000EE926010EEA228E
:0214D000120008
:0E14D200D9CFE6FFDACFE6FFFA0EE3CFD9FF5F
:1014E000FB0EE3CFDAFFFC0EE3CFE9FFFD0EE3CF07
:1014F000EAFFE9CFF3FFEACFF4FFF80EE35003E190
:10150000F90EE3500BE0F80EE30602E2F90EE306F3
:10151000DECFEFFFEE66F1D7DD52EFD7FF0EE3CF60
:10152000DAFFE552FF0EE3CFD9FFE5521200FB0EC2
:10153000E3CFF6FFFC0EE3CFF7FFFD0EE3CFF8FF9E
:10154000FE0EE3CFE9FFFF0EE3CFEAFFE9CFF3FFA3
:10155000EACFF4FFF90EE35003E1FA0EE3500CE09A
:10156000F90EE30602E2FA0EE3060900F5CFEFFFFB
:10157000EE66F0D70A00EED71200FE0EE3CFE9FFC9
:10158000FF0EE3CFEAFFF36AF46AEE5203E0F34A98
:10159000F42AFBD71200FF0EE3CFF8FFE552FF0E4F
:1015A000E3CFF7FFE552FF0EE3CFF6FFE552E66A21
:1015B000E66AE66A0900F55209E0FD0EE32A05E154
:1015C000FE0EE32A02E1FF0EE32AF4D7FD0EE3CF7D
:1015D00007F0FE0EE3CF08F0FF0EE3CF09F0120094
:1015E000412025752025752C204925752020202097
:1015F000200045727220256C752C2023256C752CDB
:101600002049256C75202020200054686520414425
:101610004320697320576F726B696E67202020200A
:1016200020202020202020202000546865204144D4
:101630004320697320446F6E6520202020202020E5
:101640002020005350492044256C7520256C7520BE
:10165000202020202020202000535049205525699B
:101660002025622020202020202020202000202053
:10167000202020202020202020202020202020206A
:101680002020202020200030363A31303A343100FA
:0C1690004F6374203138203230313200BA
:04169C00D9CFE6FFBD
:1016A000DACFE6FFE1CFD9FFE2CFDAFFE652E6522A
:1016B000E652E652D950F90F146EFF0EDA20156E7D
:1016C000020E14C0DBFF030E15C0DBFF020EDBCFE2
:1016D000E6FF030EDBCFE6FFF90EDBCFE6FFFA0EE7
:1016E000DBCFE6FFFB0EDBCFE6FFD950FC0FE66E4B
:1016F000FF0EDA20E66E24EC00F0146E070EE15CBB
:1017000002E2E16AE552E16E1450F3CFDEFFF4CF5E
:10171000DDFFFC0EDBCFE9FFFD0EDBCFEAFFEF6A5A
:10172000DECF14F0DDCF15F014C0F3FF15C0F4FFC9
:10173000040EE15C02E2E16AE552E16EE552E5CFBA
:08174000DAFFE7CFD9FF120028
:08174800006A0EAEADEF0BF0DC
:101750000D6C0E1EE86A0E22001E09AEB5EF0BF0EE
:10176000086C091EE86A0922001E06EC0FF009BE8B
:10177000C5EF0BF000AE000C086C091EE86A0922E8
:10178000046C051EE86A0522000C00BEBCEF0BF0DD
:101790000188FF0C09C013F008C012F008500D02B8
:1017A000F4CF07F0F3CF06F009500E02F4CF09F0A2
:1017B000F3CF08F00D02F3500726F4500822E86A30
:1017C000092212500E02F3500726F4500822E86A4C
:1017D00009220EAEF0EF0BF01250085E1350095ABA
:0E17E00013AE000C0D50085E0E50095A000C9E
:0217EE000E0EDD
:1017F000F66E000EF76E000EF86E03010900F5504C
:10180000A96F0900F550AA6F03E1A96701D03DD087
:101810000900F550A46F0900F550A56F0900F550B7
:10182000A66F09000900F550E96E0900F550EA6E4F
:10183000090009000900F550A76F0900F550A86FCD
:1018400009000900F6CFABF3F7CFACF3F8CFADF357
:10185000A4C3F6FFA5C3F7FFA6C3F8FF0301A75370
:1018600002E1A85307E00900F550EE6EA707F8E281
:10187000A807F9D7ABC3F6FFACC3F7FFADC3F8FFBA
:0C1880000301A907000EAA5BBFD71200ED
:04188C00D9CFE6FFCB
:10189000E1CFD9FF0F0E87169916999499929996D0
:1018A00090949092909637EC07F0300E33D8050E56
:1018B000E66EEFEC0EF0E552300E2CD8010EE66E1F
:1018C000EFEC0EF0E552320E25D829D8FEE127D8EC
:1018D000FEE1FE0EDBCFE6FF2FEC0EF0E5521FD847
:1018E000FEE1080E17D81BD8FEE10F0E13D817D84B
:1018F000FEE1010E0FD813D8FEE1130E0BD80FD85E
:10190000FEE1800EE66EA0EC0DF0E552E552E7CF69
:10191000D9FF1200E66E2FEC0EF0E55212001CEC1F
:061920000FF000091200A7
:0A192600D9CFE6FFDACFE6FFE1CFEC
:10193000D9FFE2CFDAFFFB0EDBCF14F0FC0EDBCFDA
:1019400015F00001800E15141AE1FB0EDBCFE9FF44
:10195000FC0EDBCFEAFFEECFF3FFEDCFF4FFEE2A74
:10196000000EEF22F3CFE9FFF4CFEAFFFD0EDBCF4D
:10197000EFFFEF50156AF36E15C0F4FF10D0FB0EA9
:10198000DB50FE0806E1FD0EDBCFE6FF62EC0FF058
:1019900005D0FD0EDBCFE6FF03EC00F0E552E5528B
:0A19A000E5CFDAFFE7CFD9FF120010
:0619AA0006500B02F3CF12
:1019B00002F0F4CF03F00C02F3500326000EF420E3
:1019C000046E06500D02F3500426000EF420056E3E
:1019D00006500E02F350052607500B02F350032663
:1019E000F4500422000E052207500C02F350042686
:1019F000F450052207500D02F350052608500B0243
:101A0000F3500426F450052208500C02F35005262A
:0A1A100009500B02F35005261200E6
:061A1A00D9CFE6FFDACF90
:101A2000E6FFE1CFD9FFE2CFDAFFC26AC06AFC0E5F
:101A3000DB407F0B3C0BC26EFC0EDB38F00B300B37
:101A4000146EFB0EDB500F0B1410C16EFD0EDB503D
:101A5000040DF350380B156EFD0EDB380F0B070B22
:101A6000146EFD0EDB50800B14101510C06EFC0EB2
:101A7000DBAE03D09E9C9D8CF28CC280E552E5CFFC
:081A8000DAFFE7CFD9FF1200E5
:081A8800D9CFE6FFDACFE6FF3B
:101A9000E1CFD9FFE2CFDAFF3F0E6416636AFD0E95
:101AA000DB506312FB0EDB506412FC0EDB50030AAA
:101AB00009E0010A04E0020A06E1648C04D0648CA7
:101AC000638801D06388FD0EDB50050A03E0010A3C
:101AD00003E1958E958C01D0959C958A9598638AA3
:0C1AE000E552E5CFDAFFE7CFD9FF120096
:041AEC00D9CFE6FF69
:101AF000E1CFD9FF19D814E01CEC0FF00009FCE18C
:101B000013D8E66E0CEC0EF0E552D950FC0FE96EDE
:101B1000FF0EDA20EA6EEE2A000EEE22EE22EAD75F
:101B2000E552E7CFD9FF1200FC0EDBCFF6FFFD0E2A
:101B3000DBCFF7FFFE0EDBCFF8FF0800F5501200F9
:101B4000D9CFE6FFE1CFD9FF0F0E99168716FE0E0B
:101B5000DB508009F00B8712909490920ED80F0EF4
:101B60008716FE0EDB38F00BF00B871206D8F00E4E
:101B70009912E552E7CFD9FF12002AEC07F09086C0
:081B80002AEC07F09096120018
:081B8800D9CFE6FFE1CFD9FF40
:101B90000F0E99168716FE0EDB504009F00B8712C8
:101BA000909490920ED80F0E8716FE0EDB38F00B35
:101BB000F00B871206D8F00E9912E552E7CFD9FF45
:101BC00012002AEC07F090862AEC07F0909612009B
:101BD000056A046A036A026A200EE76ED890063628
:101BE00007360836093602360336043605360B50FA
:101BF000025C0C5003580D5004580E50055809E370
:101C00000B50025E0C50035A0D50045A0E50055AE8
:081C1000062AE72EE4D71200BA
:081C1800D9CFE6FFE1CFD9FFAF
:101C20000F0E99168716FE0EDB50F00B871290826E
:101C300090940ED80F0E8716FE0EDB38F00BF00BCB
:101C4000871206D8F00E9912E552E7CFD9FF12009D
:0E1C50002AEC07F090862AEC07F0909612001E
:021C5E00D9CFDC
:101C6000E6FFE1CFD9FF0F0E99168716FE0EDB5067
:101C7000F00B8712909490920ED80F0E8716FE0EDE
:101C8000DB38F00BF00B871206D8F00E9912E552F4
:101C9000E7CFD9FF12002AEC07F090862AEC07F074
:041CA0009096120008
:0C1CA400D9CFE6FFE1CFD9FFE6529084D3
:101CB00090822AEC07F090862AEC07F0F00E871449
:101CC000DF6E90962AEC07F090862AEC07F08738B2
:101CD0000F0B0F0BDF12909690929094DF50E5520D
:081CE000E552E7CFD9FF120025
:081CE800D9CFE6FFE1CFD9FFDF
:101CF000E652908490922AEC07F090862AEC07F046
:101D0000F00E8714DF6E90962AEC07F090862AEC8E
:101D100007F087380F0B0F0BDF12909690947F0E11
:0C1D2000DF14E552E552E7CFD9FF1200B6
:041D2C00D9CFE6FF26
:101D3000E1CFD9FF14D80FE01CEC0FF00009FCE153
:101D40000ED8E66E0CEC0EF0E552FD0EDB2AFE0E10
:101D5000F1E3DB2AEFD7E552E7CFD9FF1200FD0E02
:0E1D6000DBCFE9FFFE0EDBCFEAFFEF501200F3
:021D6E00D9CFCB
:101D7000E6FFDACFE6FFE1CFD9FFE2CFDAFFE652A6
:101D8000E652FC0EDBCFDEFFDBCFDDFF010EDB50CA
:101D9000D76EDF50D66EE552E552E552E5CFDAFF59
:061DA000E7CFD9FF12009D
:0A1DA600D9CFE6FFDACFE6FFE1CF68
:101DB000D9FFE2CFDAFFFD0EDB507F0BD56ED76A7D
:101DC000D66AF294FD0EDBAE02D0F28A01D0F29A0E
:0E1DD000D58EE552E5CFDAFFE7CFD9FF12003E
:021DDE00FF0EF6
:101DE000E350206EEF0E01D0F30EE76EE72EF6EF14
:101DF0000EF00C0E1F6EE76AE72EFCEF0EF01F2EA2
:0C1E0000FBEF0EF0202EF4EF0EF01200AD
:041E0C00056A046AF5
:101E1000100EE76ED89008360936043605360D5098
:101E2000045C0E50055805E30D50045E0E50055A33
:081E3000082AE72EF0D712008A
:081E3800908490922AEC07F05F
:101E400090862AEC07F087AE02D003D8010C01D8A7
:101E5000000C90962AEC07F090862AEC07F09096FA
:041E60009094120048
:0C1E6400F36AF46AFF0EE124E96EFF0E41
:101E7000E220EA6EED6607D02F0EEF6404D03A0E32
:081E8000EF6001D0F32A12000B
:081E8800600EF36E00EE00F0A5
:101E90000F0E01D81200EA6002D0EE6AFCD7F350B0
:081EA000E9601200EE6AFCD7B4
:081EA8001EEE00F02EEE00F02A
:101EB000F86A019CF7EC0BF079EC0FF032EC08F0CB
:041EC000FBD712003A
:0C1EC400FF0EE350ACBA04D0AF6AAB8E46
:101ED000AC8A949CACA2FED7AD6EF36EF46A12008D
:101EE0003031323334353637383961626364656690
:011EF00000F1
:021EF2001200DC
:0C1EF4009016008716000000000000009F
:101F000000000000000000000000000000000000D1
:101F100000000000000000000000000000000000C1
:101F200000000000000000000000000000000000B1
:101F300000000000000000000000000000000000A1
:101F40000000000000000000000000000000000091
:101F50000000000000000000000000000000000081
:101F60000000000000000000000000000000000071
:101F70000000000000000000000000000000000061
:101F80000000000000000000000000000000000051
:081F900000000000C800000081
:020000040030CA
:0100010006F8
:0100020019E4
:0100030015E7
:010006008178
:00000001FF
