:020000040000FA
:0600000086EF0FF0120074
:020006001200E6
:060008001FEF06F01200DC
:02000E000100EF
:0C001000581F000000030000A3000000C7
:04001C004AEC05F0B5
:10002000FB0EDBCFF3FFDB06F35000090AE098EC90
:1000300005F0FA0E03EC06F0F3E1151CF1E1010EF8
:1000400001D0000E79EF05F04AEC05F03B0EE124FB
:1000500002E3E168E652E16E010EDB6A020EDB6A42
:10006000F90EDBCFF6FFFA0EDBCFF7FFFB0EDBCF8F
:10007000F8FF0800F550DF6EDF5002E19DEF04F05D
:10008000250EDF5C02E090EF04F0030EDB6A040E45
:10009000DB6A050EDB6A060EDB6A070EDB6AB2EC72
:1000A00004F02D0EDF5C0CE02B0EDF5C09E0200E6F
:1000B000DF5C06E0230EDF5C03E0300EDF5C1AE15C
:1000C000DF50300A14E0130A0FE0030A0AE00B0ABB
:1000D00005E0060AE4E1030EDB80E1D7030EDB82D4
:1000E000DED7030EDB84DBD7030EDB86D8D7030E07
:1000F000DB88D5D72A0EDF5C1BE1AEEC04F0FCEC0C
:1001000004F010E0030EDB8008680968130EDBCFF3
:100110000DF0140EDBCF0EF0FCEC0BF0040E06C05D
:10012000DBFF03D0130EE5EC04F0B2EC04F00BD0CF
:10013000090EDB6A53EC05F003E0C7EC05F0FAD7D3
:10014000090EE5EC04F0030EDBB0DB982E0EDF5C4D
:100150001BE1B2EC04F02A0EDF5C0BE1AEEC04F024
:10016000FCEC04F003E1130E37EC05F0B2EC04F004
:100170000BD0090EDB6A53EC05F003E0C7EC05F089
:10018000FAD7090E37EC05F0680EDF5C07E1B2EC38
:1001900004F0680EDF5C1DE1030E18D0740EDF5C06
:1001A00017E07A0EDF5C14E0480EDF5C06E0540EC8
:1001B000DF5C03E05A0EDF5C02E1020E07D06C0E3A
:1001C000DF5C03E06A0EDF5C04E1010E8AEC05F0FF
:1001D000C9DBDF506E0A01E17FD31E0A01E192D133
:1001E000200A01E18FD13F0A01E149D11A0A01E158
:1001F00046D10D0A01E143D1200A01E140D13A0A7A
:1002000001E13DD1200A01E13AD1260A01E135D1CF
:100210000D0A01E132D11A0A01E1D9D0200A4AE0DF
:10022000300A1FE0460A0EE0250A01E083D3D950C8
:10023000F90FE96EFF0EDA20EA6E010EEE5E000E97
:10024000EE5AEE5A98EC05F0250EE66E95DB03E1CA
:10025000151C01E169D394EC05F001E26BD3DB2AB4
:1002600069D3080EDB6A040EDB50010806E2040EB7
:10027000DB045CEC05F0DB508BDB080EDB5009E0A7
:10028000030EDB50010B05E172DB01E04DD3080EDC
:10029000DB6A64DBEFCFDFFF0CEC06F003E1151C3B
:1002A00001E142D394EC05F001E3DB2A60DB01E1DC
:1002B00041D33AD3070EDB5002080FE1D8EC05F02A
:1002C000030E9FEC05F00E0EEECFDBFF0F0EEECF10
:1002D000DBFF100EEECFDBFF20D0F70EDBCF17F0E9
:1002E000F80EDBCF18F0020E175E000E185AF70E4C
:1002F00017C0DBFFF80E18C0DBFF17C0E9FF18C0FE
:10030000EAFF8FEC05F0166A0E0E14C0DBFF0F0E2D
:1003100015C0DBFF100E16C0DBFF0E0EDBCFE6FFB5
:100320000F0EDBCFE6FF100EDBCFE6FFECEC0AF0A2
:10033000E552E552E552130E07C0DBFF140E08C06C
:10034000DBFF060EDB5005E0130ED3EC05F001E2F7
:100350006ADBF7EC05F002E2130E37DBBAEC05F0CE
:1003600006E0040ED3EC05F002E2050E2EDB030ED0
:10037000DBB005D0FCDA01E0D7D2080EDB6A090E4B
:10038000DB6A0E0EDBCFF6FF0F0EDBCFF7FF100E92
:10039000DBCFF8FF0800F550DF6EDF5014E0FDEC16
:1003A00005F011E20CEC06F003E1151C01E1BCD2F2
:1003B000BBDB01E3DB2A090EDB2AD9500E0FE96E05
:1003C000000ECBDBE7D7D3DA01E1B4D2ADD2C6DA87
:1003D000110EEECFDBFF120EEDCFDBFF110EDBCFE8
:1003E000E6FF120EDBCFE6FFDEEC0AF0E552E55247
:1003F000130EF3CFDBFF140EF4CFDBFF060EDB5042
:1004000004E0130ED0DB01E20EDBF7EC05F002E2B4
:10041000130EDBDAAFDB05E0040EC5DB02E2050EEE
:10042000D4DA030EDBB005D0A2DA01E07DD2080EEB
:10043000DB6A090EDB6A110EDBCFE9FF120EDBCFA0
:10044000EAFFEFCFDFFFDF5014E0D7DB12E2E4DB9F
:1004500003E1151C01E168D267DB01E3DB2A090E29
:10046000DB2A110EDB2ADBCFE9FF120EE8E3DB2AE1
:10047000E6D77DDA01E15ED257D2030EDB8E070E9E
:10048000DB0410E195DB040E5ADB0A0EEECFDBFF36
:100490000B0EEECFDBFF0C0EEECFDBFF0D0EEECF23
:1004A000DBFF6CD0070EDB5003082CE1030EDBAE44
:1004B0000DD0B2DA020E76DAEFCF14F0156A166AB2
:1004C000176A14AE39D01568166835D0F70EDBCF31
:1004D00015F0F80EDBCF16F0020E155E000E165A60
:1004E000F70E15C0DBFFF80E16C0DBFF15C0E9FFE5
:1004F00016C0EAFFEFCF14F00A0E14C0DBFF0B0E9C
:10050000DB6A38D0070EDB50020809E1030EDBAED0
:1005100004D059DB16AE10D00ED055DB0DD0030E33
:10052000DBAE12D079DA020E3DDAF9DA166A176A12
:1005300015AE02D016681768E2DA0C0E16C0DBFFA3
:100540000D0E17C0DBFF1AD0F70EDBCF16F0F80E3A
:10055000DBCF17F0020E165E000E175AF70E16C00C
:10056000DBFFF80E17C0DBFF16C0E9FF17C0EAFF7C
:10057000D6DAC5DA0C0EDB6A0D0EDB6A060EDB502E
:1005800005E1010EF36E050EF3CFDBFF150EDB6AFE
:10059000160EDB6AD950370F146E000EDA20156E76
:1005A000390E14C0DBFF3A0E15C0DBFF380EDB6AD4
:1005B000080EDB6A0A0EAEDADF50780A12E0200A73
:1005C00010E0280A0CE0200A0AE03F0A06E00D0AC3
:1005D00002E0200A08E1020E05D0080E03D0080E42
:1005E000DF26100E97DA030EDBBE02D0DB92DB941F
:1005F000DB50800B24E08ADAD890030EEB50000A1F
:1006000008E6000EEE5C000EEE58000EEE58000EEE
:10061000EE5815E213DA0B680C680D680E6807ECEB
:100620000DF00A0E02C0DBFF0B0E03C0DBFF0C0E49
:1006300004C0DBFF0D0E05C0DBFF2D0E08D0030E3E
:10064000DBA202D02B0E03D0DBA408D0200EF36E69
:10065000170EF3CFDBFF150EDB2A02D0170EDB6A75
:10066000050EDB5003E1B7D901E189D0440E146EC9
:100670001F0E156E000E166E070EDBCF17F0186AF0
:10068000196A1A6A17C00BF018C00CF019C00DF0E7
:100690001AC00EF0D3D91AEC0EF014500224F36EE7
:1006A00015500320F46E16500420F86EF4CFF7FFB7
:1006B000F3CFF6FF0800090EF5CFDBFF580EDF5C25
:1006C0000FE1610EF36E090E7BD90AE3200E146E62
:1006D000090EDBCFE7FF1450E75E090EE7CFDBFF23
:1006E000070EDBCF14F0156A166A176A0FDA14C00A
:1006F0000BF015C00CF016C00DF017C00EF0EECFC9
:1007000006F0EECF07F0EECF08F0EFCF09F01AECCD
:100710000EF009C0EDFF08C0EDFF07C0EDFF06C0F9
:10072000EFFF390EDBCFE9FFDB063A0EDBCFEAFF46
:1007300001E2DB06090EDBCFEFFF150EDB2A4BD9FA
:1007400095E1030EDBA61DD06F0EDF5C06E1C1D97B
:1007500018E3150EDB285BDA14D0780EDF5C09E0B5
:10076000580EDF5C06E0620EDF5C03E0420EDF5CE9
:1007700008E1020EF36E160EF3CFDBFF02D0150E6A
:10078000DB6A030EDB50100B0EE0040EDBCF14F01F
:10079000050EDB50D880145406E2060EDB5003E150
:1007A000040EDB5034DA95D90AE2050EDBCFE7FF01
:1007B000150EDB50E75E050EE7CFDBFF02D0050E1E
:1007C000DB6A040EDBCF14F0160E45D9D880145422
:1007D00014E2160EDBCFE6FF150EDBCFE6FF040EAC
:1007E000DBCFE6FF050EDB50E552E75CE552D88033
:1007F000E754E552D880E7545FD9030EDB50010B74
:100800000BE1080EDB5008E0B2D801E08DD0080EF5
:10081000DB50BED8080EDB6A170EDB5007E088D924
:10082000170EF1D903E1151C01E17ED0160EDB5045
:1008300016E07ED9300EE66E9FD802E1151C74E0FA
:1008400077D9DFCFE6FFC5EC0CF0E552E552E55273
:10085000F4CF15F00001F31C02E1151C65E0050E54
:10086000DBCF14F0160EDB50D880145409E2050ECD
:10087000DBCFE7FF160EDB50E75E050EE7CFDBFFB1
:10088000300EE66E050ECBD94FE1390EDB2ADBCFF9
:10089000E9FF3A0E01E3DB2ADBCFEAFF090EEFCFD7
:1008A000DBFFDB500EE044D9090EADD902E1151C87
:1008B0003BE0390EDB2ADBCFE9FF3A0EEDE3DB2A22
:1008C000EBD755D831E1160EDBCFE6FF080EC3D8C3
:1008D000E552E7245DD82ED0070EDB50030A1CE05A
:1008E000010A14E0030A07E07BD9DBCFEEFF020E1A
:1008F000DBCFEDFF1FD0F5D8196A17AE02D018680C
:1009000019682CD8BCD819C0EEFF14D0EAD817BE8D
:10091000186824D8B4D80ED063D9DBCFEFFF0AD043
:100920007BD905E1151C03E1F368F46810D0FCD80D
:1009300001E3DB2A79D939EF00F0010EDBCF14F0A7
:10094000020EDBCF15F014C0F3FF15C0F4FF3B0E11
:10095000E15C02E2E16AE552E16ECBD029D9020EF8
:100960009FEF05F061D90800F550DF6E1200200EF0
:10097000E66E080E0FEF06F0C5EC0CF0E552E552FE
:10098000E552F3CF14F0F4CF15F00001F31C120080
:10099000146E156AD950010F4DD91450EE2615501A
:1009A000ED221200185E000E195AF70E18C0DBFF78
:1009B000F80E19C0DBFF18C0E9FF19C0EAFF1200EA
:1009C000DBCFF4FFF350F45C1200DB50E76E040E53
:1009D000E7CFDBFF12000A0EDBCF14F00B0EDBCFEC
:1009E00015F00C0EDBCF16F00D0EDBCF17F0145008
:1009F0001510161017101200130EEECFDBFF140E99
:100A0000EDCFDBFF130EDBCF14F0140EDBCF15F0B0
:100A10000001800E15141200F70EDBCF18F0F80E4F
:100A2000DBCF19F01200050EDB50E66ED950130F24
:100A300001D9E552E750EE6EED6A12000A0EDBCFE7
:100A400006F00B0EDBCF07F00C0EDBCF08F00D0E1F
:100A5000DBCF09F01200DBCFE6FF150EDBCFE6FFA0
:100A6000050EDB50E552E724E552E7241200DB5087
:100A7000CED8010EF36E060EF3CFDBFF1200EE5060
:100A8000EFCFEAFFE96E16C0EEFF17C0EEFF18C009
:100A9000EEFF1200D9CFE6FFDACFE6FFE1CFD9FFB4
:100AA000E2CFDAFF1200DFCFE6FFE66A64EC0FF078
:100AB000E552E552F3501200E76E080EE7CFDBFF78
:100AC0001200EECF14F0EECF15F0EFCF16F0176A4C
:100AD0001200050EDBCF14F0150EDB50D880145435
:100AE0001200010EDBCF16F0020EDBCF17F0186AF2
:100AF0001200E552E5CFDAFFE7CFD9FF12000A0E68
:100B000014C0DBFF0B0E15C0DBFF1200D9500A0F1B
:100B10001AEF06F0F36E070EF3CFDBFF1200EECFF5
:100B200014F0EFCF15F01200010EDB2A020E1200B6
:100B3000FC0EDBCFE6FFFD0EDBCFE6FF1200145EFE
:100B4000000E155AF70E14C0DBFFF80E15C0DBFFC0
:100B500014C0E9FF15C0EAFF1200DA20EA6EEF2A9E
:100B6000EECFF6FF000EEF22EECFF7FFEF22EECF33
:100B7000F8FF1200040EDBCFE6FF130EDB50E55248
:100B8000E75C9ADFDB5004DF060EDB501200090E33
:100B9000DB500A0DF350DF24D00FE76E090EE7CFCC
:100BA000DBFFB2EF04F0DB50F36E050EE0EF04F074
:100BB000F70EDBCF14F0F80EDBCF15F01200DFCF0D
:100BC000E6FFBCEF04F028DF030EECDE61EF05F07A
:100BD0000EEC00F0E552E552E552E5520009120034
:100BE000BDDEEE50EFCFEAFFE96E010E1200130EEC
:100BF000DB50F36E040EE0EF04F0040EDB50F36EF6
:100C0000090EE0EF04F0DBCFE6FFBCEF04F0E76E87
:100C1000050EE7CFDBFF12008BDFDFEF05F0DBCF48
:100C2000E6FF86DFE8EF05F0D950F90FE96EFF0E19
:0E0C3000ADEF05F0E96E000EDA20EA6E12005C
:020C3E00DACF0B
:100C4000E4FFE2CFDAFFE9CFE4FFEACFE4FFF3CF3E
:100C5000E4FFF4CFE4FFE652F2A434D0F2940301AF
:100C60006A0EA66F670EA76FA7C3D7FFA6C3D6FFEE
:100C70001A0EE96E030EEA6EEE500301165D1B6E4E
:100C8000EE50030117591C6EEE50030118591D6EEA
:100C9000EE50030119591E6E0A0E1B5C000E1C5803
:100CA000000E1D58000E1E5808E204008D828D842F
:100CB0008D868D888D8A8D8C8D8E0301A36B0301AB
:100CC0000A6B8D909EAC3FD09E9C03010E2B000EB4
:100CD0000F23102311230301A151E96EEA6AD89072
:100CE000E936EA361E0EE926030EEA22C3CFEEFFEE
:100CF000C4CFEDFF0301A45115E00301A151E96E3A
:100D0000EA6AD890E936EA361E0EE926030EEA2290
:100D1000EECF1BF0EFCF1CF01CC01BF01C6A1B5069
:100D2000666E0DD00301A151E96EEA6AD890E936EA
:100D3000EA361E0EE926030EEA22EF50666E030124
:100D4000010E096F8D72A4AE96D0A49E0301162BDE
:100D5000000E17231823192366CFFCF1F00E0101B2
:100D6000FC150301A56F800E0301A55D04E0C00E14
:100D70000301A55D2FE1400E0101FC15000805E20D
:100D80000301010EA46F8D9E03D00301A46B8D8E11
:100D90000F0E0101FC150301A16F0301A1510B0806
:100DA00002E20301A16BC2B20FD0C30EC2141B6ECC
:100DB0000301A151040DF3503C0B1B10C26E030143
:100DC000096BC2828D7406D0C2924C0E666E03010E
:100DD000096B8D76400E0101FC5D03E14C0E666EE1
:100DE0008D78900E0101FC5D46E1C2B241D0030155
:100DF000A4510EE00301A151E96EEA6AD890E936E8
:100E0000EA361E0EE926030EEA22EF50666E14D073
:100E10000301A151E96EEA6AD890E936EA361E0E5E
:100E2000E926030EEA22EECF1BF0EFCF1CF01CC028
:100E30001BF01C6A1B50666E8D7A16C31AF317C31B
:100E40001BF318C31CF319C31DF304000301010EA7
:100E50000A6F0301010EA36F8D8003016A0EA66F56
:100E6000670EA76FA7C3D7FFA6C3D6FFF29403D020
:100E70008D7C4C0E666EE552E5CFF4FFE5CFF3FFB7
:100E8000E5CFEAFFE5CFE9FFE5CFDAFF1100D9CFE3
:100E9000E6FFE1CFD9FF0301A86BA96BAA6BAB6B8F
:100EA000D950FB0FE96EFF0EDA20EA6E0301A8515C
:100EB000EE5C0301A951EE580301AA51EE5803015B
:100EC000AB51EE5809E3000004000301A82B000E0B
:100ED000A923AA23AB23E4D7E552E7CFD9FF120019
:100EE00000000301AC6B0301A0510301AC5D04E2FF
:100EF00000000301AC2BF7D712000F0EE66E21ECB9
:100F00000FF0E5521200050EE66E21EC0FF0E552EF
:100F10001200D9CFE6FFE1CFD9FFFC0EDB502FE066
:100F2000FD0EDBCFE6FFFE0EDB50E552E7240301AA
:100F3000A26F140EE66EE66AD10EE66E160EE66E2F
:100F4000000EE66EC2DAB8EC0AF0166E070EE15E2D
:100F50001650140EE66EE66A000EE66E020EE66E9F
:100F60000301B3DA8AEC0AF0166E060EE15E165043
:100F70000301C5DA140EE926000EEA22EF6AFD0E1F
:100F8000DB50030A0CE0010A08E0030A04E0010A4E
:100F900009E1E66A08D0400E03D0140E01D0540EC9
:100FA000E66E01D0E66AD2EC0DF0E552FD0EDB50A4
:100FB00003010D25A26F9FDAFEE1030186DAC8EC7A
:100FC0000EF0E552E55297DAFEE1E552E7CFD9FFA0
:100FD00012000301C80EA06F82DA8DDA1FE02B0E1B
:100FE000E66E78EC0CF0E55286DAFEE178DA2B0E4C
:100FF000E66E78EC0CF0E5527EDAFEE10C0EE66E61
:1010000061EC0EF0E55277DAFEE1010EE66E61EC7E
:101010000EF0E55264DA0301180EA06F12009388F7
:10102000938A938C938E966A976A9A6A996A8D6866
:1010300091689068958C958A9598958E030EC16EEF
:101040009280928292849286928A978097829784E5
:1010500097869788978A978CF30EE66E840EE66ED5
:10106000E6683FEC0DF0E552E552E5529D8C9F8C11
:10107000E66A030EE66E040EE66E76EC0DF0E552BF
:10108000E552E552400E666E970EE66E05EC0FF0E7
:10109000E5526A0EE66E670EE66EE9EC0EF0E5527A
:1010A000E552A49EA38EF28CF28E639C639E120086
:1010B000D9CFE6FFE1CFD9FF090EE126040EDB6AA6
:1010C000050EDB6A060EDB6A070EDB6AA8DF81DF2E
:1010D000140EE66EE66A03C3E6FF04C3E6FF05C32B
:1010E000E6FF000EE66E020EE66EB8EC0AF0146E35
:1010F000070EE15E1450010EE66EE66AE66A09DF4D
:10110000E552E552E552DE6ADD6ADECF14F0DDCF4E
:1011100015F0D890155004E6E80E145C030E15582F
:101120001EE2020EDB6A030EDB6A020EDBCF14F056
:10113000030EDBCF15F0D890155004E6F40E145CC6
:10114000010E155807E20400020EDB2A030E01E32C
:10115000DB2AEBD7DF2A010E01E3DB2AD6D7B40E58
:10116000E66E160EE66E000EE66E000EE66E020EDF
:10117000E66E80EC0BF0146E050EE15E1450010E6D
:10118000E66EE66AE66AC5DEE552E552E552140E01
:10119000E66EE66A00C3E6FF01C3E6FF02C3E6FFB0
:1011A000000EE66E020EE66EB8EC0AF0146E070E44
:1011B000E15E1450010EE66E010EE66EE66AA9DEEF
:1011C000E552E552E552DE6ADD6ADECF14F0DDCF8E
:1011D00015F0D890155004E6E80E145C030E15586F
:1011E0001EE2020EDB6A030EDB6A020EDBCF14F096
:1011F000030EDBCF15F0D890155004E6F40E145C06
:10120000010E155807E20400020EDB2A030E01E36B
:10121000DB2AEBD7DF2A010E01E3DB2AD6D76350A6
:10122000800B03E16350400B1BE09070639C639E56
:10123000120EE96E030EEA6EEE5003010E5D03011D
:10124000126FEE5003010F590301136FEE500301AB
:1012500010590301146FEE50030111590301156F6A
:10126000DE6ADD6ADECF14F0DDCF15F0D8901550C0
:1012700004E6010E145C000E155801E31BD1020EAA
:10128000DB6A030EDB6A020EDBCF14F0030EDBCF4A
:1012900015F0D890155004E6010E145C000E155898
:1012A00001E303D1040EDBCF14F0DB2A050EDBCF04
:1012B00015F001E3DB2A100E0D6E270E0E6E14C022
:1012C00008F015C009F0D6EC0BF004C014F005C00E
:1012D00015F01450151004E003010A5101E0DFD0AD
:1012E00003010A5124E0080EDBCFE6FFE66A060E92
:1012F000DBCFE6FF070EDBCFE6FF9F0EE66E160E96
:10130000E66E000EE66E000EE66E020EE66E80ECF5
:101310000BF0146E090EE15E1450010EE66E020E23
:10132000E66EE66AF6DDE552E552E55229D016C3CF
:10133000E6FF17C3E6FF18C3E6FF19C3E6FF1AC3AB
:10134000E6FF1BC3E6FF1CC3E6FF1DC3E6FF890ED5
:10135000E66E160EE66E000EE66E000EE66E020EED
:10136000E66E80EC0BF0146E0D0EE15E1450010E73
:10137000E66E020EE66EE66ACCDDE552E552E55217
:10138000030109511AE0700EE66E160EE66E000EAD
:10139000E66E000EE66E020EE66E80EC0BF0146E4A
:1013A000050EE15E1450010EE66E030EE66EE66A6F
:1013B000B0DDE552E552E55219D0500EE66E160E3C
:1013C000E66E000EE66E000EE66E020EE66E80EC35
:1013D0000BF0146E050EE15E1450010EE66E030E66
:1013E000E66EE66A96DDE552E552E55216C3E6FF83
:1013F00017C3E6FF18C3E6FF19C3E6FF0EC3E6FFF7
:101400000FC3E6FF10C3E6FF11C3E6FF12C3E6FFFA
:1014100013C3E6FF14C3E6FF15C3E6FF03010A5139
:10142000E66EE66A340EE66E160EE66E000EE66EA8
:10143000000EE66E020EE66E80EC0BF0146E130EDC
:10144000E15E1450010EE66EE66AE66A62DDE55280
:10145000E552E5520101FC51E66EE66A20C3E6FF63
:1014600021C3E6FF1EC3E6FF1FC3E6FF220EE66EA2
:10147000160EE66E000EE66E000EE66E020EE66ECC
:1014800080EC0BF0146E0B0EE15E1450010EE66E54
:10149000010EE66EE66A3DDDE552E552E552020ECA
:1014A000DB2A030E01E3DB2AEED6DF2A010E01E37D
:1014B000DB2AD8D6B4D6090EE15C02E2E16AE55235
:1014C000E16EE552E7CFD9FF120019D8E9CF14F049
:1014D000EACF15F0E9CFE6FFEACFE6FF1200100EE3
:1014E000E66E270EE66EE66AE66AD1DCE552E55264
:1014F000E552E55212004EEC0FF000091200A25125
:10150000150DF3CFE9FFF4CFEAFF000EE926010E37
:04151000EA221200B9
:0C151400D9CFE6FFDACFE6FFFA0EE3CFF6
:10152000D9FFFB0EE3CFDAFFFC0EE3CFE9FFFD0EA0
:10153000E3CFEAFFE9CFF3FFEACFF4FFF80EE35081
:1015400003E1F90EE3500BE0F80EE30602E2F90EB8
:10155000E306DECFEFFFEE66F1D7DD52EFD7FF0EE9
:10156000E3CFDAFFE552FF0EE3CFD9FFE5521200D9
:10157000FB0EE3CFF6FFFC0EE3CFF7FFFD0EE3CF4C
:10158000F8FFFE0EE3CFE9FFFF0EE3CFEAFFE9CF5E
:10159000F3FFEACFF4FFF90EE35003E1FA0EE35054
:1015A0000CE0F90EE30602E2FA0EE3060900F5CFBD
:1015B000EFFFEE66F0D70A00EED71200FE0EE3CF83
:1015C000E9FFFF0EE3CFEAFFF36AF46AEE5203E0AD
:1015D000F34AF42AFBD71200FF0EE3CFF8FFE552DF
:1015E000FF0EE3CFF7FFE552FF0EE3CFF6FFE55224
:1015F000E66AE66AE66A0900F55209E0FD0EE32AAA
:1016000005E1FE0EE32A02E1FF0EE32AF4D7FD0E08
:10161000E3CF07F0FE0EE3CF08F0FF0EE3CF09F0B3
:021620001200B6
:0E162200412025752025752C20492575202096
:10163000202020005225752045727220256C752CC3
:101640002023256C752C2049256C75202020200036
:101650005468652041444320697320576F726B6959
:101660006E67202020202020202020202020200005
:101670005468652041444320697320446F6E65209F
:101680002020202020202020005350492044256C79
:101690007520256C7520202020202020202000533C
:1016A0005049205525692025622020202020202017
:1016B000202020006E736173706F6F6B20202020DC
:1016C000202020202020202020202020202020201A
:1016D000002020202020202020202020202020202A
:1016E0002020202020202020200030373A30363A99
:0F16F0003139004F6374203235203230313200EF
:10170000D9CFE6FFDACFE6FFE1CFD9FFE2CFDAFFAC
:10171000E652E652E652E652D950F90F146EFF0E29
:10172000DA20156E020E14C0DBFF030E15C0DBFFBE
:10173000020EDBCFE6FF030EDBCFE6FFF90EDBCFB9
:10174000E6FFFA0EDBCFE6FFFB0EDBCFE6FFD9505C
:10175000FC0FE66EFF0EDA20E66E24EC00F0146E4D
:10176000070EE15C02E2E16AE552E16E1450F3CF4C
:10177000DEFFF4CFDDFFFC0EDBCFE9FFFD0EDBCF9C
:10178000EAFFEF6ADECF14F0DDCF15F014C0F3FFEF
:1017900015C0F4FF040EE15C02E2E16AE552E16E7D
:0C17A000E552E5CFDAFFE7CFD9FF1200D9
:0417AC00006A0EAE13
:1017B000DFEF0BF00D6C0E1EE86A0E22001E09AE64
:1017C000E7EF0BF0086C091EE86A0922001E38ECEE
:1017D0000FF009BEF7EF0BF000AE000C086C091E0D
:1017E000E86A0922046C051EE86A0522000C00BEA6
:1017F000EEEF0BF00188FF0C09C013F008C012F0E7
:1018000008500D02F4CF07F0F3CF06F009500E0296
:10181000F4CF09F0F3CF08F00D02F3500726F4508F
:101820000822E86A092212500E02F3500726F450EB
:101830000822E86A09220EAE22EF0CF01250085E70
:101840001350095A13AE000C0D50085E0E50095A81
:02185000000C8A
:0E1852000E0EF66E000EF76E000EF86E03011D
:101860000900F550B26F0900F550B36F03E1B2679C
:1018700001D03DD00900F550AD6F0900F550AE6FB5
:101880000900F550AF6F09000900F550E96E090035
:10189000F550EA6E090009000900F550B06F090023
:1018A000F550B16F09000900F6CFB4F3F7CFB5F3E7
:1018B000F8CFB6F3ADC3F6FFAEC3F7FFAFC3F8FF83
:1018C0000301B05302E1B15307E00900F550EE6E99
:1018D000B007F8E2B107F9D7B4C3F6FFB5C3F7FF15
:1018E000B6C3F8FF0301B207000EB35BBFD7120007
:1018F000D9CFE6FFE1CFD9FF0F0E8716991699943D
:10190000999299969094909290967DEC07F0300E73
:1019100033D8050EE66E21EC0FF0E552300E2CD8D0
:10192000010EE66E21EC0FF0E552320E25D829D8D3
:10193000FEE127D8FEE1FE0EDBCFE6FF61EC0EF004
:10194000E5521FD8FEE1080E17D81BD8FEE10F0E96
:1019500013D817D8FEE1010E0FD813D8FEE1130EED
:101960000BD80FD8FEE1800EE66ED2EC0DF0E552FA
:10197000E552E7CFD9FF1200E66E61EC0EF0E552BA
:0A19800012004EEC0FF000091200F7
:06198A00D9CFE6FFDACF21
:10199000E6FFE1CFD9FFE2CFDAFFFB0EDBCF14F099
:1019A000FC0EDBCF15F00001800E15141AE1FB0EC2
:1019B000DBCFE9FFFC0EDBCFEAFFEECFF3FFEDCF8D
:1019C000F4FFEE2A000EEF22F3CFE9FFF4CFEAFF97
:1019D000FD0EDBCFEFFFEF50156AF36E15C0F4FF7D
:1019E00010D0FB0EDB50FE0806E1FD0EDBCFE6FF5C
:1019F00094EC0FF005D0FD0EDBCFE6FF03EC00F01A
:0E1A0000E552E552E5CFDAFFE7CFD9FF12003D
:021A0E00065080
:101A10000B02F3CF02F0F4CF03F00C02F3500326D5
:101A2000000EF420046E06500D02F3500426000E42
:101A3000F420056E06500E02F350052607500B02E7
:101A4000F3500326F4500422000E052207500C0226
:101A5000F3500426F450052207500D02F3500526DA
:101A600008500B02F3500426F450052208500C02D3
:0E1A7000F350052609500B02F3500526120014
:021A7E00D9CFBE
:101A8000E6FFDACFE6FFE1CFD9FFE2CFDAFFC26AA5
:101A9000C06AFC0EDB407F0B3C0BC26EFC0EDB38D9
:101AA000F00B300B146EFB0EDB500F0B1410C16EDD
:101AB000FD0EDB50040DF350380B156EFD0EDB38B8
:101AC0000F0B070B146EFD0EDB50800B141015105E
:101AD000C06EFC0EDBAE03D09E9C9D8CF28CC2804F
:0C1AE000E552E5CFDAFFE7CFD9FF120096
:041AEC00D9CFE6FF69
:101AF000DACFE6FFE1CFD9FFE2CFDAFF3F0E64167F
:101B0000636AFD0EDB506312FB0EDB506412FC0EA9
:101B1000DB50030A09E0010A04E0020A06E1648CD2
:101B200004D0648C638801D06388FD0EDB50050A05
:101B300003E0010A03E1958E958C01D0959C958A6E
:101B40009598638AE552E5CFDAFFE7CFD9FF120017
:101B5000D9CFE6FFE1CFD9FF19D814E04EEC0FF052
:101B60000009FCE113D8E66E3EEC0EF0E552D950C8
:101B7000FC0FE96EFF0EDA20EA6EEE2A000EEE226E
:101B8000EE22EAD7E552E7CFD9FF1200FC0EDBCFF9
:101B9000F6FFFD0EDBCFF7FFFE0EDBCFF8FF0800F0
:041BA000F5501200EA
:0C1BA400D9CFE6FFE1CFD9FF0F0E991654
:101BB0008716FE0EDB508009F00B871290949092EE
:101BC0000ED80F0E8716FE0EDB38F00BF00B8712C7
:101BD00006D8F00E9912E552E7CFD9FF120070EC4B
:0C1BE00007F0908670EC07F09096120061
:041BEC00D9CFE6FF68
:101BF000E1CFD9FF0F0E99168716FE0EDB50400974
:101C0000F00B8712909490920ED80F0E8716FE0E4E
:101C1000DB38F00BF00B871206D8F00E9912E55264
:101C2000E7CFD9FF120070EC07F0908670EC07F058
:041C30009096120078
:0C1C3400056A046A036A026A200EE76E6B
:101C4000D89006360736083609360236033604368B
:101C500005360B50025C0C5003580D5004580E50C2
:101C6000055809E30B50025E0C50035A0D50045AFC
:0C1C70000E50055A062AE72EE4D7120099
:041C7C00D9CFE6FFD7
:101C8000E1CFD9FF0F0E99168716FE0EDB50F00B31
:101C90008712908290940ED80F0E8716FE0EDB38B6
:101CA000F00BF00B871206D8F00E9912E552E7CF31
:101CB000D9FF120070EC07F0908670EC07F0909658
:021CC000120010
:0E1CC200D9CFE6FFE1CFD9FF0F0E9916871696
:101CD000FE0EDB50F00B8712909490920ED80F0EF0
:101CE0008716FE0EDB38F00BF00B871206D8F00ECD
:101CF0009912E552E7CFD9FF120070EC07F09086F9
:081D000070EC07F09096120050
:081D0800D9CFE6FFE1CFD9FFBE
:101D1000E6529084908270EC07F0908670EC07F0A9
:101D2000F00E8714DF6E909670EC07F0908670ECE2
:101D300007F087380F0B0F0BDF129096909290945C
:0C1D4000DF50E552E552E7CFD9FF12005A
:041D4C00D9CFE6FF06
:101D5000E1CFD9FFE6529084909270EC07F0908624
:101D600070EC07F0F00E8714DF6E909670EC07F0C1
:101D7000908670EC07F087380F0B0F0BDF129096F0
:101D800090947F0EDF14E552E552E7CFD9FF1200A1
:101D9000D9CFE6FFE1CFD9FF14D80FE04EEC0FF01A
:101DA0000009FCE10ED8E66E3EEC0EF0E552FD0EA9
:101DB000DB2AFE0EF1E3DB2AEFD7E552E7CFD9FFAE
:101DC0001200FD0EDBCFE9FFFE0EDBCFEAFFEF5086
:021DD0001200FF
:0E1DD200D9CFE6FFDACFE6FFE1CFD9FFE2CFAF
:101DE000DAFFE652E652FC0EDBCFDEFFDBCFDDFF93
:101DF000010EDB50D76EDF50D66EE552E552E5524C
:0A1E0000E5CFDAFFE7CFD9FF1200AB
:061E0A00D9CFE6FFDACF9C
:101E1000E6FFE1CFD9FFE2CFDAFFFD0EDB507F0B0B
:101E2000D56ED76AD66AF294FD0EDBAE02D0F28A86
:101E300001D0F29AD58EE552E5CFDAFFE7CFD9FF90
:021E400012008E
:0E1E4200FF0EE350206EEF0E01D0F30EE76EA0
:101E5000E72E28EF0FF00C0E1F6EE76AE72E2EEF2D
:101E60000FF01F2E2DEF0FF0202E26EF0FF0120097
:101E7000056A046A100EE76ED890083609360436F3
:101E800005360D50045C0E50055805E30D50045EF8
:0C1E90000E50055A082AE72EF0D7120069
:041E9C00908490920C
:101EA00070EC07F0908670EC07F087AE02D003D894
:101EB000010C01D8000C909670EC07F0908670EC45
:081EC00007F0909690941200C7
:081EC800F36AF46AFF0EE12445
:101ED000E96EFF0EE220EA6EED6607D02F0EEF648A
:0C1EE00004D03A0EEF6001D0F32A12008B
:041EEC00600EF36E23
:101EF00000EE00F00F0E01D81200EA6002D0EE6A88
:0C1F0000FCD7F350E9601200EE6AFCD739
:041F0C001EEE00F0D5
:101F10002EEE00F0F86A019C29EC0CF0ABEC0FF00F
:081F200058EC08F0FBD7120099
:081F2800FF0EE350ACBA04D037
:101F3000AF6AAB8EAC8A949CACA2FED7AD6EF36E4A
:041F4000F46A12002D
:0C1F4400303132333435363738396162C1
:051F50006364656600FA
:021F5600120077
:081F5800F31600EA1600000078
:101F60000000000000000000000000000000000071
:101F70000000000000000000000000000000000061
:101F80000000000000000000000000000000000051
:101F90000000000000000000000000000000000041
:101FA0000000000000000000000000000000000031
:101FB0000000000000000000000000000000000021
:101FC0000000000000000000000000000000000011
:101FD0000000000000000000000000000000000001
:101FE00000000000000000000000000000000000F1
:0B1FF0000000000000000000C800001E
:020000040030CA
:0100010006F8
:0100020019E4
:0100030015E7
:010006008178
:00000001FF
